{
  "abi": [
    {
      "inputs": [
        {
          "internalType": "contract IERC721",
          "name": "_nftCollection",
          "type": "address"
        },
        {
          "internalType": "contract IERC20",
          "name": "_rewardsToken",
          "type": "address"
        }
      ],
      "stateMutability": "nonpayable",
      "type": "constructor"
    },
    {
      "inputs": [
        {
          "internalType": "address",
          "name": "_staker",
          "type": "address"
        }
      ],
      "name": "availableRewards",
      "outputs": [
        {
          "internalType": "uint256",
          "name": "",
          "type": "uint256"
        }
      ],
      "stateMutability": "view",
      "type": "function"
    },
    {
      "inputs": [],
      "name": "claimRewards",
      "outputs": [],
      "stateMutability": "nonpayable",
      "type": "function"
    },
    {
      "inputs": [
        {
          "internalType": "address",
          "name": "_user",
          "type": "address"
        }
      ],
      "name": "getStakedTokens",
      "outputs": [
        {
          "components": [
            {
              "internalType": "address",
              "name": "staker",
              "type": "address"
            },
            {
              "internalType": "uint256",
              "name": "tokenId",
              "type": "uint256"
            }
          ],
          "internalType": "struct nftStaking.StakedToken[]",
          "name": "",
          "type": "tuple[]"
        }
      ],
      "stateMutability": "view",
      "type": "function"
    },
    {
      "inputs": [],
      "name": "nftCollection",
      "outputs": [
        {
          "internalType": "contract IERC721",
          "name": "",
          "type": "address"
        }
      ],
      "stateMutability": "view",
      "type": "function"
    },
    {
      "inputs": [],
      "name": "rewardsToken",
      "outputs": [
        {
          "internalType": "contract IERC20",
          "name": "",
          "type": "address"
        }
      ],
      "stateMutability": "view",
      "type": "function"
    },
    {
      "inputs": [
        {
          "internalType": "uint256",
          "name": "_tokenId",
          "type": "uint256"
        }
      ],
      "name": "stake",
      "outputs": [],
      "stateMutability": "nonpayable",
      "type": "function"
    },
    {
      "inputs": [
        {
          "internalType": "uint256",
          "name": "",
          "type": "uint256"
        }
      ],
      "name": "stakerAddress",
      "outputs": [
        {
          "internalType": "address",
          "name": "",
          "type": "address"
        }
      ],
      "stateMutability": "view",
      "type": "function"
    },
    {
      "inputs": [
        {
          "internalType": "address",
          "name": "",
          "type": "address"
        }
      ],
      "name": "stakers",
      "outputs": [
        {
          "internalType": "uint256",
          "name": "amountStaked",
          "type": "uint256"
        },
        {
          "internalType": "uint256",
          "name": "timeOfLastUpdate",
          "type": "uint256"
        },
        {
          "internalType": "uint256",
          "name": "unclaimedRewards",
          "type": "uint256"
        }
      ],
      "stateMutability": "view",
      "type": "function"
    },
    {
      "inputs": [
        {
          "internalType": "uint256",
          "name": "_tokenId",
          "type": "uint256"
        }
      ],
      "name": "withdraw",
      "outputs": [],
      "stateMutability": "nonpayable",
      "type": "function"
    }
  ],
  "devdoc": {
    "kind": "dev",
    "methods": {},
    "version": 1
  },
  "evm": {
    "assembly": "    /* \"StakingContract.sol\":303:4441  contract nftStaking is ReentrancyGuard {... */\n  mstore(0x40, 0xc0)\n    /* \"StakingContract.sol\":918:929  10000000000 */\n  0x02540be400\n    /* \"StakingContract.sol\":885:929  uint256 private rewardsPerHour = 10000000000 */\n  0x01\n  sstore\n    /* \"StakingContract.sol\":468:611  constructor(IERC721 _nftCollection, IERC20 _rewardsToken) {... */\n  callvalue\n  dup1\n  iszero\n  tag_1\n  jumpi\n  0x00\n  dup1\n  revert\ntag_1:\n  pop\n  mload(0x40)\n  sub(codesize, bytecodeSize)\n  dup1\n  bytecodeSize\n  dup4\n  codecopy\n  dup2\n  add\n  0x40\n  dup2\n  swap1\n  mstore\n  tag_2\n  swap2\n  tag_3\n  jump\t// in\ntag_2:\n    /* \"@openzeppelin/contracts/security/ReentrancyGuard.sol\":1716:1717   */\n  0x01\n    /* \"@openzeppelin/contracts/security/ReentrancyGuard.sol\":1821:1828   */\n  0x00\n    /* \"@openzeppelin/contracts/security/ReentrancyGuard.sol\":1821:1843   */\n  sstore\n  sub(shl(0xa0, 0x01), 0x01)\n    /* \"StakingContract.sol\":536:566  nftCollection = _nftCollection */\n  swap2\n  dup3\n  and\n  0xa0\n  mstore\n    /* \"StakingContract.sol\":576:604  rewardsToken = _rewardsToken */\n  and\n  0x80\n  mstore\n    /* \"StakingContract.sol\":303:4441  contract nftStaking is ReentrancyGuard {... */\n  jump(tag_10)\n    /* \"#utility.yul\":14:154   */\ntag_9:\n  sub(shl(0xa0, 0x01), 0x01)\n    /* \"#utility.yul\":98:129   */\n  dup2\n  and\n    /* \"#utility.yul\":88:130   */\n  dup2\n  eq\n    /* \"#utility.yul\":78:148   */\n  tag_12\n  jumpi\n    /* \"#utility.yul\":144:145   */\n  0x00\n    /* \"#utility.yul\":141:142   */\n  dup1\n    /* \"#utility.yul\":134:146   */\n  revert\n    /* \"#utility.yul\":78:148   */\ntag_12:\n    /* \"#utility.yul\":14:154   */\n  pop\n  jump\t// out\n    /* \"#utility.yul\":159:592   */\ntag_3:\n    /* \"#utility.yul\":268:274   */\n  0x00\n    /* \"#utility.yul\":276:282   */\n  dup1\n    /* \"#utility.yul\":329:331   */\n  0x40\n    /* \"#utility.yul\":317:326   */\n  dup4\n    /* \"#utility.yul\":308:315   */\n  dup6\n    /* \"#utility.yul\":304:327   */\n  sub\n    /* \"#utility.yul\":300:332   */\n  slt\n    /* \"#utility.yul\":297:349   */\n  iszero\n  tag_14\n  jumpi\n    /* \"#utility.yul\":345:346   */\n  0x00\n    /* \"#utility.yul\":342:343   */\n  dup1\n    /* \"#utility.yul\":335:347   */\n  revert\n    /* \"#utility.yul\":297:349   */\ntag_14:\n    /* \"#utility.yul\":377:386   */\n  dup3\n    /* \"#utility.yul\":371:387   */\n  mload\n    /* \"#utility.yul\":396:436   */\n  tag_15\n    /* \"#utility.yul\":430:435   */\n  dup2\n    /* \"#utility.yul\":396:436   */\n  tag_9\n  jump\t// in\ntag_15:\n    /* \"#utility.yul\":505:507   */\n  0x20\n    /* \"#utility.yul\":490:508   */\n  dup5\n  add\n    /* \"#utility.yul\":484:509   */\n  mload\n    /* \"#utility.yul\":455:460   */\n  swap1\n  swap3\n  pop\n    /* \"#utility.yul\":518:560   */\n  tag_16\n    /* \"#utility.yul\":484:509   */\n  dup2\n    /* \"#utility.yul\":518:560   */\n  tag_9\n  jump\t// in\ntag_16:\n    /* \"#utility.yul\":579:586   */\n  dup1\n    /* \"#utility.yul\":569:586   */\n  swap2\n  pop\n  pop\n    /* \"#utility.yul\":159:592   */\n  swap3\n  pop\n  swap3\n  swap1\n  pop\n  jump\t// out\ntag_10:\n    /* \"StakingContract.sol\":303:4441  contract nftStaking is ReentrancyGuard {... */\n  mload(0x80)\n  mload(0xa0)\n  codecopy(0x00, dataOffset(sub_0), dataSize(sub_0))\n  0x00\n  assignImmutable(\"0x8e8fab5f003314da8d1873ea7720e8d9f47650136d916064d1edb8a11d682624\")\n  0x00\n  assignImmutable(\"0x5c4c6aa067b6f8e6cb38e6ab843832a94d1712d661a04d73c517d6a1931a9e5d\")\n  return(0x00, dataSize(sub_0))\nstop\n\nsub_0: assembly {\n        /* \"StakingContract.sol\":303:4441  contract nftStaking is ReentrancyGuard {... */\n      mstore(0x40, 0x80)\n      callvalue\n      dup1\n      iszero\n      tag_1\n      jumpi\n      0x00\n      dup1\n      revert\n    tag_1:\n      pop\n      jumpi(tag_2, lt(calldatasize, 0x04))\n      shr(0xe0, calldataload(0x00))\n      dup1\n      0x9168ae72\n      gt\n      tag_12\n      jumpi\n      dup1\n      0xa694fc3a\n      gt\n      tag_13\n      jumpi\n      dup1\n      0xa694fc3a\n      eq\n      tag_9\n      jumpi\n      dup1\n      0xd1af0c7d\n      eq\n      tag_10\n      jumpi\n      dup1\n      0xf854a27f\n      eq\n      tag_11\n      jumpi\n      0x00\n      dup1\n      revert\n    tag_13:\n      dup1\n      0x9168ae72\n      eq\n      tag_7\n      jumpi\n      dup1\n      0x94067045\n      eq\n      tag_8\n      jumpi\n      0x00\n      dup1\n      revert\n    tag_12:\n      dup1\n      0x2e1a7d4d\n      eq\n      tag_3\n      jumpi\n      dup1\n      0x372500ab\n      eq\n      tag_4\n      jumpi\n      dup1\n      0x63c28db1\n      eq\n      tag_5\n      jumpi\n      dup1\n      0x6588103b\n      eq\n      tag_6\n      jumpi\n    tag_2:\n      0x00\n      dup1\n      revert\n        /* \"StakingContract.sol\":1788:2861  function withdraw(uint256 _tokenId) external nonReentrant {... */\n    tag_3:\n      tag_14\n      tag_15\n      calldatasize\n      0x04\n      tag_16\n      jump\t// in\n    tag_15:\n      tag_17\n      jump\t// in\n    tag_14:\n      stop\n        /* \"StakingContract.sol\":2867:3246  function claimRewards() external {... */\n    tag_4:\n      tag_14\n      tag_19\n      jump\t// in\n        /* \"StakingContract.sol\":3463:4135  function getStakedTokens(address _user) public view returns (StakedToken[] memory) {... */\n    tag_5:\n      tag_20\n      tag_21\n      calldatasize\n      0x04\n      tag_22\n      jump\t// in\n    tag_21:\n      tag_23\n      jump\t// in\n    tag_20:\n      mload(0x40)\n      tag_24\n      swap2\n      swap1\n      tag_25\n      jump\t// in\n    tag_24:\n      mload(0x40)\n      dup1\n      swap2\n      sub\n      swap1\n      return\n        /* \"StakingContract.sol\":423:461  IERC721 public immutable nftCollection */\n    tag_6:\n      tag_26\n      immutable(\"0x8e8fab5f003314da8d1873ea7720e8d9f47650136d916064d1edb8a11d682624\")\n      dup2\n      jump\n    tag_26:\n      mload(0x40)\n      sub(shl(0xa0, 0x01), 0x01)\n        /* \"#utility.yul\":1636:1691   */\n      swap1\n      swap2\n      and\n        /* \"#utility.yul\":1618:1692   */\n      dup2\n      mstore\n        /* \"#utility.yul\":1606:1608   */\n      0x20\n        /* \"#utility.yul\":1591:1609   */\n      add\n        /* \"StakingContract.sol\":423:461  IERC721 public immutable nftCollection */\n      tag_24\n        /* \"#utility.yul\":1456:1698   */\n      jump\n        /* \"StakingContract.sol\":936:977  mapping(address => Staker) public stakers */\n    tag_7:\n      tag_30\n      tag_31\n      calldatasize\n      0x04\n      tag_22\n      jump\t// in\n    tag_31:\n      0x02\n      0x20\n      dup2\n      swap1\n      mstore\n      0x00\n      swap2\n      dup3\n      mstore\n      0x40\n      swap1\n      swap2\n      keccak256\n      dup1\n      sload\n      swap2\n      dup2\n      add\n      sload\n      0x03\n      swap1\n      swap2\n      add\n      sload\n      dup4\n      jump\n    tag_30:\n      0x40\n      dup1\n      mload\n        /* \"#utility.yul\":1905:1930   */\n      swap4\n      dup5\n      mstore\n        /* \"#utility.yul\":1961:1963   */\n      0x20\n        /* \"#utility.yul\":1946:1964   */\n      dup5\n      add\n        /* \"#utility.yul\":1939:1973   */\n      swap3\n      swap1\n      swap3\n      mstore\n        /* \"#utility.yul\":1989:2007   */\n      swap1\n      dup3\n      add\n        /* \"#utility.yul\":1982:2016   */\n      mstore\n        /* \"#utility.yul\":1893:1895   */\n      0x60\n        /* \"#utility.yul\":1878:1896   */\n      add\n        /* \"StakingContract.sol\":936:977  mapping(address => Staker) public stakers */\n      tag_24\n        /* \"#utility.yul\":1703:2022   */\n      jump\n        /* \"StakingContract.sol\":984:1032  mapping(uint256 => address) public stakerAddress */\n    tag_8:\n      tag_26\n      tag_36\n      calldatasize\n      0x04\n      tag_16\n      jump\t// in\n    tag_36:\n      mstore(0x20, 0x03)\n      0x00\n      swap1\n      dup2\n      mstore\n      0x40\n      swap1\n      keccak256\n      sload\n      sub(shl(0xa0, 0x01), 0x01)\n      and\n      dup2\n      jump\n        /* \"StakingContract.sol\":1039:1781  function stake(uint256 _tokenId) external nonReentrant {... */\n    tag_9:\n      tag_14\n      tag_41\n      calldatasize\n      0x04\n      tag_16\n      jump\t// in\n    tag_41:\n      tag_42\n      jump\t// in\n        /* \"StakingContract.sol\":381:417  IERC20 public immutable rewardsToken */\n    tag_10:\n      tag_26\n      immutable(\"0x5c4c6aa067b6f8e6cb38e6ab843832a94d1712d661a04d73c517d6a1931a9e5d\")\n      dup2\n      jump\n        /* \"StakingContract.sol\":3252:3457  function availableRewards(address _staker) public view returns (uint256) {... */\n    tag_11:\n      tag_47\n      tag_48\n      calldatasize\n      0x04\n      tag_22\n      jump\t// in\n    tag_48:\n      tag_49\n      jump\t// in\n    tag_47:\n      mload(0x40)\n        /* \"#utility.yul\":2649:2674   */\n      swap1\n      dup2\n      mstore\n        /* \"#utility.yul\":2637:2639   */\n      0x20\n        /* \"#utility.yul\":2622:2640   */\n      add\n        /* \"StakingContract.sol\":3252:3457  function availableRewards(address _staker) public view returns (uint256) {... */\n      tag_24\n        /* \"#utility.yul\":2503:2680   */\n      jump\n        /* \"StakingContract.sol\":1788:2861  function withdraw(uint256 _tokenId) external nonReentrant {... */\n    tag_17:\n        /* \"@openzeppelin/contracts/security/ReentrancyGuard.sol\":2261:2282   */\n      tag_53\n        /* \"@openzeppelin/contracts/security/ReentrancyGuard.sol\":2261:2280   */\n      tag_54\n        /* \"@openzeppelin/contracts/security/ReentrancyGuard.sol\":2261:2282   */\n      jump\t// in\n    tag_53:\n        /* \"StakingContract.sol\":1885:1895  msg.sender */\n      caller\n        /* \"StakingContract.sol\":1912:1913  0 */\n      0x00\n        /* \"StakingContract.sol\":1877:1896  stakers[msg.sender] */\n      swap1\n      dup2\n      mstore\n        /* \"StakingContract.sol\":1877:1884  stakers */\n      0x02\n        /* \"StakingContract.sol\":1877:1896  stakers[msg.sender] */\n      0x20\n      mstore\n      0x40\n      swap1\n      keccak256\n        /* \"StakingContract.sol\":1877:1909  stakers[msg.sender].amountStaked */\n      sload\n        /* \"StakingContract.sol\":1856:1964  require(... */\n      tag_56\n      jumpi\n      mload(0x40)\n      shl(0xe5, 0x461bcd)\n      dup2\n      mstore\n        /* \"#utility.yul\":2887:2889   */\n      0x20\n        /* \"StakingContract.sol\":1856:1964  require(... */\n      0x04\n      dup3\n      add\n        /* \"#utility.yul\":2869:2890   */\n      mstore\n        /* \"#utility.yul\":2926:2928   */\n      0x19\n        /* \"#utility.yul\":2906:2924   */\n      0x24\n      dup3\n      add\n        /* \"#utility.yul\":2899:2929   */\n      mstore\n        /* \"#utility.yul\":2965:2992   */\n      0x596f752068617665206e6f20746f6b656e73207374616b656400000000000000\n        /* \"#utility.yul\":2945:2963   */\n      0x44\n      dup3\n      add\n        /* \"#utility.yul\":2938:2993   */\n      mstore\n        /* \"#utility.yul\":3010:3028   */\n      0x64\n      add\n        /* \"StakingContract.sol\":1856:1964  require(... */\n    tag_57:\n      mload(0x40)\n      dup1\n      swap2\n      sub\n      swap1\n      revert\n    tag_56:\n        /* \"StakingContract.sol\":1991:2014  stakerAddress[_tokenId] */\n      0x00\n      dup2\n      dup2\n      mstore\n        /* \"StakingContract.sol\":1991:2004  stakerAddress */\n      0x03\n        /* \"StakingContract.sol\":1991:2014  stakerAddress[_tokenId] */\n      0x20\n      mstore\n      0x40\n      swap1\n      keccak256\n      sload\n      sub(shl(0xa0, 0x01), 0x01)\n      and\n        /* \"StakingContract.sol\":2018:2028  msg.sender */\n      caller\n        /* \"StakingContract.sol\":1991:2028  stakerAddress[_tokenId] == msg.sender */\n      eq\n        /* \"StakingContract.sol\":1983:2058  require(stakerAddress[_tokenId] == msg.sender, \"You don't own this token!\") */\n      tag_59\n      jumpi\n      mload(0x40)\n      shl(0xe5, 0x461bcd)\n      dup2\n      mstore\n        /* \"#utility.yul\":3241:3243   */\n      0x20\n        /* \"StakingContract.sol\":1983:2058  require(stakerAddress[_tokenId] == msg.sender, \"You don't own this token!\") */\n      0x04\n      dup3\n      add\n        /* \"#utility.yul\":3223:3244   */\n      mstore\n        /* \"#utility.yul\":3280:3282   */\n      0x19\n        /* \"#utility.yul\":3260:3278   */\n      0x24\n      dup3\n      add\n        /* \"#utility.yul\":3253:3283   */\n      mstore\n        /* \"#utility.yul\":3319:3346   */\n      0x596f7520646f6e2774206f776e207468697320746f6b656e2100000000000000\n        /* \"#utility.yul\":3299:3317   */\n      0x44\n      dup3\n      add\n        /* \"#utility.yul\":3292:3347   */\n      mstore\n        /* \"#utility.yul\":3364:3382   */\n      0x64\n      add\n        /* \"StakingContract.sol\":1983:2058  require(stakerAddress[_tokenId] == msg.sender, \"You don't own this token!\") */\n      tag_57\n        /* \"#utility.yul\":3039:3388   */\n      jump\n        /* \"StakingContract.sol\":1983:2058  require(stakerAddress[_tokenId] == msg.sender, \"You don't own this token!\") */\n    tag_59:\n        /* \"StakingContract.sol\":2069:2084  uint256 rewards */\n      0x00\n        /* \"StakingContract.sol\":2087:2115  calculateRewards(msg.sender) */\n      tag_62\n        /* \"StakingContract.sol\":2104:2114  msg.sender */\n      caller\n        /* \"StakingContract.sol\":2087:2103  calculateRewards */\n      tag_63\n        /* \"StakingContract.sol\":2087:2115  calculateRewards(msg.sender) */\n      jump\t// in\n    tag_62:\n        /* \"StakingContract.sol\":2133:2143  msg.sender */\n      caller\n        /* \"StakingContract.sol\":2125:2144  stakers[msg.sender] */\n      0x00\n      swap1\n      dup2\n      mstore\n        /* \"StakingContract.sol\":2125:2132  stakers */\n      0x02\n        /* \"StakingContract.sol\":2125:2144  stakers[msg.sender] */\n      0x20\n      mstore\n      0x40\n      dup2\n      keccak256\n        /* \"StakingContract.sol\":2125:2161  stakers[msg.sender].unclaimedRewards */\n      0x03\n      add\n        /* \"StakingContract.sol\":2125:2172  stakers[msg.sender].unclaimedRewards += rewards */\n      dup1\n      sload\n        /* \"StakingContract.sol\":2069:2115  uint256 rewards = calculateRewards(msg.sender) */\n      swap3\n      swap4\n      pop\n      dup4\n      swap3\n        /* \"StakingContract.sol\":2125:2161  stakers[msg.sender].unclaimedRewards */\n      swap1\n      swap2\n        /* \"StakingContract.sol\":2125:2144  stakers[msg.sender] */\n      swap1\n        /* \"StakingContract.sol\":2125:2172  stakers[msg.sender].unclaimedRewards += rewards */\n      tag_64\n      swap1\n        /* \"StakingContract.sol\":2069:2115  uint256 rewards = calculateRewards(msg.sender) */\n      dup5\n      swap1\n        /* \"StakingContract.sol\":2125:2172  stakers[msg.sender].unclaimedRewards += rewards */\n      tag_65\n      jump\t// in\n    tag_64:\n      swap1\n      swap2\n      sstore\n      pop\n        /* \"StakingContract.sol\":2183:2196  uint256 index */\n      0x00\n      swap1\n      pop\n      dup1\n        /* \"StakingContract.sol\":2210:2554  for (uint256 i = 0; i < stakers[msg.sender].stakedTokens.length; i++) {... */\n    tag_66:\n        /* \"StakingContract.sol\":2242:2252  msg.sender */\n      caller\n        /* \"StakingContract.sol\":2234:2253  stakers[msg.sender] */\n      0x00\n      swap1\n      dup2\n      mstore\n        /* \"StakingContract.sol\":2234:2241  stakers */\n      0x02\n        /* \"StakingContract.sol\":2234:2253  stakers[msg.sender] */\n      0x20\n      mstore\n      0x40\n      swap1\n      keccak256\n        /* \"StakingContract.sol\":2234:2266  stakers[msg.sender].stakedTokens */\n      0x01\n      add\n        /* \"StakingContract.sol\":2234:2273  stakers[msg.sender].stakedTokens.length */\n      sload\n        /* \"StakingContract.sol\":2230:2273  i < stakers[msg.sender].stakedTokens.length */\n      dup2\n      lt\n        /* \"StakingContract.sol\":2210:2554  for (uint256 i = 0; i < stakers[msg.sender].stakedTokens.length; i++) {... */\n      iszero\n      tag_67\n      jumpi\n        /* \"StakingContract.sol\":2323:2333  msg.sender */\n      caller\n        /* \"StakingContract.sol\":2315:2334  stakers[msg.sender] */\n      0x00\n      swap1\n      dup2\n      mstore\n        /* \"StakingContract.sol\":2315:2322  stakers */\n      0x02\n        /* \"StakingContract.sol\":2315:2334  stakers[msg.sender] */\n      0x20\n      mstore\n      0x40\n      swap1\n      keccak256\n        /* \"StakingContract.sol\":2315:2347  stakers[msg.sender].stakedTokens */\n      0x01\n      add\n        /* \"StakingContract.sol\":2315:2350  stakers[msg.sender].stakedTokens[i] */\n      dup1\n      sload\n        /* \"StakingContract.sol\":2362:2370  _tokenId */\n      dup6\n      swap2\n        /* \"StakingContract.sol\":2315:2347  stakers[msg.sender].stakedTokens */\n      swap1\n        /* \"StakingContract.sol\":2348:2349  i */\n      dup4\n      swap1\n        /* \"StakingContract.sol\":2315:2350  stakers[msg.sender].stakedTokens[i] */\n      dup2\n      lt\n      tag_70\n      jumpi\n      tag_70\n      tag_71\n      jump\t// in\n    tag_70:\n      swap1\n      0x00\n      mstore\n      keccak256(0x00, 0x20)\n      swap1\n      0x02\n      mul\n      add\n        /* \"StakingContract.sol\":2315:2358  stakers[msg.sender].stakedTokens[i].tokenId */\n      0x01\n      add\n      sload\n        /* \"StakingContract.sol\":2315:2370  stakers[msg.sender].stakedTokens[i].tokenId == _tokenId */\n      eq\n        /* \"StakingContract.sol\":2315:2464  stakers[msg.sender].stakedTokens[i].tokenId == _tokenId ... */\n      dup1\n      iszero\n      tag_73\n      jumpi\n      pop\n        /* \"StakingContract.sol\":2416:2426  msg.sender */\n      caller\n        /* \"StakingContract.sol\":2462:2463  0 */\n      0x00\n        /* \"StakingContract.sol\":2408:2427  stakers[msg.sender] */\n      swap1\n      dup2\n      mstore\n        /* \"StakingContract.sol\":2408:2415  stakers */\n      0x02\n        /* \"StakingContract.sol\":2408:2427  stakers[msg.sender] */\n      0x20\n      mstore\n      0x40\n      dup2\n      keccak256\n        /* \"StakingContract.sol\":2408:2440  stakers[msg.sender].stakedTokens */\n      0x01\n      add\n        /* \"StakingContract.sol\":2408:2443  stakers[msg.sender].stakedTokens[i] */\n      dup1\n      sload\n        /* \"StakingContract.sol\":2441:2442  i */\n      dup4\n      swap1\n        /* \"StakingContract.sol\":2408:2443  stakers[msg.sender].stakedTokens[i] */\n      dup2\n      lt\n      tag_75\n      jumpi\n      tag_75\n      tag_71\n      jump\t// in\n    tag_75:\n      0x00\n      swap2\n      dup3\n      mstore\n      0x20\n      swap1\n      swap2\n      keccak256\n      0x02\n      swap1\n      swap2\n      mul\n      add\n        /* \"StakingContract.sol\":2408:2450  stakers[msg.sender].stakedTokens[i].staker */\n      sload\n      sub(shl(0xa0, 0x01), 0x01)\n      and\n        /* \"StakingContract.sol\":2408:2464  stakers[msg.sender].stakedTokens[i].staker != address(0) */\n      eq\n      iszero\n        /* \"StakingContract.sol\":2315:2464  stakers[msg.sender].stakedTokens[i].tokenId == _tokenId ... */\n    tag_73:\n        /* \"StakingContract.sol\":2294:2544  if (... */\n      iszero\n      tag_77\n      jumpi\n        /* \"StakingContract.sol\":2505:2506  i */\n      dup1\n        /* \"StakingContract.sol\":2497:2506  index = i */\n      swap2\n      pop\n        /* \"StakingContract.sol\":2524:2529  break */\n      jump(tag_67)\n        /* \"StakingContract.sol\":2294:2544  if (... */\n    tag_77:\n        /* \"StakingContract.sol\":2275:2278  i++ */\n      dup1\n      tag_78\n      dup2\n      tag_79\n      jump\t// in\n    tag_78:\n      swap2\n      pop\n      pop\n        /* \"StakingContract.sol\":2210:2554  for (uint256 i = 0; i < stakers[msg.sender].stakedTokens.length; i++) {... */\n      jump(tag_66)\n    tag_67:\n      pop\n        /* \"StakingContract.sol\":2572:2582  msg.sender */\n      caller\n        /* \"StakingContract.sol\":2621:2622  0 */\n      0x00\n        /* \"StakingContract.sol\":2564:2583  stakers[msg.sender] */\n      swap1\n      dup2\n      mstore\n        /* \"StakingContract.sol\":2564:2571  stakers */\n      0x02\n        /* \"StakingContract.sol\":2564:2583  stakers[msg.sender] */\n      0x20\n      mstore\n      0x40\n      dup2\n      keccak256\n        /* \"StakingContract.sol\":2564:2596  stakers[msg.sender].stakedTokens */\n      0x01\n      add\n        /* \"StakingContract.sol\":2564:2603  stakers[msg.sender].stakedTokens[index] */\n      dup1\n      sload\n        /* \"StakingContract.sol\":2597:2602  index */\n      dup4\n      swap1\n        /* \"StakingContract.sol\":2564:2603  stakers[msg.sender].stakedTokens[index] */\n      dup2\n      lt\n      tag_81\n      jumpi\n      tag_81\n      tag_71\n      jump\t// in\n    tag_81:\n      0x00\n      swap2\n      dup3\n      mstore\n      0x20\n      dup1\n      dup4\n      keccak256\n      0x02\n      swap3\n      dup4\n      mul\n      add\n        /* \"StakingContract.sol\":2564:2623  stakers[msg.sender].stakedTokens[index].staker = address(0) */\n      dup1\n      sload\n      not(sub(shl(0xa0, 0x01), 0x01))\n      and\n      sub(shl(0xa0, 0x01), 0x01)\n      swap6\n      swap1\n      swap6\n      and\n      swap5\n      swap1\n      swap5\n      or\n      swap1\n      swap4\n      sstore\n        /* \"StakingContract.sol\":2642:2652  msg.sender */\n      caller\n        /* \"StakingContract.sol\":2634:2653  stakers[msg.sender] */\n      dup3\n      mstore\n      swap1\n      swap2\n      mstore\n      0x40\n      dup2\n      keccak256\n        /* \"StakingContract.sol\":2634:2668  stakers[msg.sender].amountStaked-- */\n      dup1\n      sload\n      swap2\n      tag_83\n      dup4\n      tag_84\n      jump\t// in\n    tag_83:\n      swap1\n      swap2\n      sstore\n      pop\n      pop\n        /* \"StakingContract.sol\":2713:2714  0 */\n      0x00\n        /* \"StakingContract.sol\":2679:2702  stakerAddress[_tokenId] */\n      dup4\n      dup2\n      mstore\n        /* \"StakingContract.sol\":2679:2692  stakerAddress */\n      0x03\n        /* \"StakingContract.sol\":2679:2702  stakerAddress[_tokenId] */\n      0x20\n      mstore\n      0x40\n      swap1\n      dup2\n      swap1\n      keccak256\n        /* \"StakingContract.sol\":2679:2715  stakerAddress[_tokenId] = address(0) */\n      dup1\n      sload\n      not(sub(shl(0xa0, 0x01), 0x01))\n      and\n      swap1\n      sstore\n        /* \"StakingContract.sol\":2726:2789  nftCollection.transferFrom(address(this), msg.sender, _tokenId) */\n      mload\n      shl(0xe0, 0x23b872dd)\n      dup2\n      mstore\n        /* \"StakingContract.sol\":2761:2765  this */\n      address\n        /* \"StakingContract.sol\":2726:2789  nftCollection.transferFrom(address(this), msg.sender, _tokenId) */\n      0x04\n      dup3\n      add\n        /* \"#utility.yul\":4331:4365   */\n      mstore\n        /* \"StakingContract.sol\":2768:2778  msg.sender */\n      caller\n        /* \"#utility.yul\":4381:4399   */\n      0x24\n      dup3\n      add\n        /* \"#utility.yul\":4374:4417   */\n      mstore\n        /* \"#utility.yul\":4433:4451   */\n      0x44\n      dup2\n      add\n        /* \"#utility.yul\":4426:4460   */\n      dup5\n      swap1\n      mstore\n      sub(shl(0xa0, 0x01), 0x01)\n        /* \"StakingContract.sol\":2726:2739  nftCollection */\n      immutable(\"0x8e8fab5f003314da8d1873ea7720e8d9f47650136d916064d1edb8a11d682624\")\n        /* \"StakingContract.sol\":2726:2752  nftCollection.transferFrom */\n      and\n      swap1\n      0x23b872dd\n      swap1\n        /* \"#utility.yul\":4243:4261   */\n      0x64\n      add\n        /* \"StakingContract.sol\":2726:2789  nftCollection.transferFrom(address(this), msg.sender, _tokenId) */\n      0x00\n      mload(0x40)\n      dup1\n      dup4\n      sub\n      dup2\n      0x00\n      dup8\n      dup1\n      extcodesize\n      iszero\n      dup1\n      iszero\n      tag_87\n      jumpi\n      0x00\n      dup1\n      revert\n    tag_87:\n      pop\n      gas\n      call\n      iszero\n      dup1\n      iszero\n      tag_89\n      jumpi\n      returndatasize\n      0x00\n      dup1\n      returndatacopy\n      revert(0x00, returndatasize)\n    tag_89:\n      pop\n      pop\n        /* \"StakingContract.sol\":2808:2818  msg.sender */\n      caller\n        /* \"StakingContract.sol\":2800:2819  stakers[msg.sender] */\n      0x00\n      swap1\n      dup2\n      mstore\n        /* \"StakingContract.sol\":2800:2807  stakers */\n      0x02\n        /* \"StakingContract.sol\":2800:2819  stakers[msg.sender] */\n      0x20\n      dup2\n      swap1\n      mstore\n      0x40\n      swap1\n      swap2\n      keccak256\n        /* \"StakingContract.sol\":2839:2854  block.timestamp */\n      timestamp\n        /* \"StakingContract.sol\":2800:2836  stakers[msg.sender].timeOfLastUpdate */\n      swap2\n      add\n        /* \"StakingContract.sol\":2800:2854  stakers[msg.sender].timeOfLastUpdate = block.timestamp */\n      sstore\n      pop\n        /* \"@openzeppelin/contracts/security/ReentrancyGuard.sol\":2303:2323   */\n      tag_90\n      swap3\n      pop\n        /* \"@openzeppelin/contracts/security/ReentrancyGuard.sol\":2303:2321   */\n      tag_91\n      swap2\n      pop\n      pop\n        /* \"@openzeppelin/contracts/security/ReentrancyGuard.sol\":2303:2323   */\n      jump\t// in\n    tag_90:\n        /* \"StakingContract.sol\":1788:2861  function withdraw(uint256 _tokenId) external nonReentrant {... */\n      pop\n      jump\t// out\n        /* \"StakingContract.sol\":2867:3246  function claimRewards() external {... */\n    tag_19:\n        /* \"StakingContract.sol\":2979:2989  msg.sender */\n      caller\n        /* \"StakingContract.sol\":2910:2925  uint256 rewards */\n      0x00\n        /* \"StakingContract.sol\":2971:2990  stakers[msg.sender] */\n      dup2\n      dup2\n      mstore\n        /* \"StakingContract.sol\":2971:2978  stakers */\n      0x02\n        /* \"StakingContract.sol\":2971:2990  stakers[msg.sender] */\n      0x20\n      mstore\n      0x40\n      dup2\n      keccak256\n        /* \"StakingContract.sol\":2971:3007  stakers[msg.sender].unclaimedRewards */\n      0x03\n      add\n      sload\n        /* \"StakingContract.sol\":2910:2925  uint256 rewards */\n      swap1\n      swap2\n        /* \"StakingContract.sol\":2928:2956  calculateRewards(msg.sender) */\n      tag_93\n      swap1\n        /* \"StakingContract.sol\":2928:2944  calculateRewards */\n      tag_63\n        /* \"StakingContract.sol\":2928:2956  calculateRewards(msg.sender) */\n      jump\t// in\n    tag_93:\n        /* \"StakingContract.sol\":2928:3007  calculateRewards(msg.sender) +... */\n      tag_94\n      swap2\n      swap1\n      tag_65\n      jump\t// in\n    tag_94:\n        /* \"StakingContract.sol\":2910:3007  uint256 rewards = calculateRewards(msg.sender) +... */\n      swap1\n      pop\n        /* \"StakingContract.sol\":3035:3036  0 */\n      0x00\n        /* \"StakingContract.sol\":3025:3032  rewards */\n      dup2\n        /* \"StakingContract.sol\":3025:3036  rewards > 0 */\n      gt\n        /* \"StakingContract.sol\":3017:3069  require(rewards > 0, \"You have no rewards to claim\") */\n      tag_95\n      jumpi\n      mload(0x40)\n      shl(0xe5, 0x461bcd)\n      dup2\n      mstore\n        /* \"#utility.yul\":4673:4675   */\n      0x20\n        /* \"StakingContract.sol\":3017:3069  require(rewards > 0, \"You have no rewards to claim\") */\n      0x04\n      dup3\n      add\n        /* \"#utility.yul\":4655:4676   */\n      mstore\n        /* \"#utility.yul\":4712:4714   */\n      0x1c\n        /* \"#utility.yul\":4692:4710   */\n      0x24\n      dup3\n      add\n        /* \"#utility.yul\":4685:4715   */\n      mstore\n        /* \"#utility.yul\":4751:4781   */\n      0x596f752068617665206e6f207265776172647320746f20636c61696d00000000\n        /* \"#utility.yul\":4731:4749   */\n      0x44\n      dup3\n      add\n        /* \"#utility.yul\":4724:4782   */\n      mstore\n        /* \"#utility.yul\":4799:4817   */\n      0x64\n      add\n        /* \"StakingContract.sol\":3017:3069  require(rewards > 0, \"You have no rewards to claim\") */\n      tag_57\n        /* \"#utility.yul\":4471:4823   */\n      jump\n        /* \"StakingContract.sol\":3017:3069  require(rewards > 0, \"You have no rewards to claim\") */\n    tag_95:\n        /* \"StakingContract.sol\":3087:3097  msg.sender */\n      caller\n        /* \"StakingContract.sol\":3079:3098  stakers[msg.sender] */\n      0x00\n      dup2\n      dup2\n      mstore\n        /* \"StakingContract.sol\":3079:3086  stakers */\n      0x02\n        /* \"StakingContract.sol\":3079:3098  stakers[msg.sender] */\n      0x20\n      dup2\n      swap1\n      mstore\n      0x40\n      dup3\n      keccak256\n        /* \"StakingContract.sol\":3118:3133  block.timestamp */\n      timestamp\n        /* \"StakingContract.sol\":3079:3115  stakers[msg.sender].timeOfLastUpdate */\n      swap2\n      dup2\n      add\n        /* \"StakingContract.sol\":3079:3133  stakers[msg.sender].timeOfLastUpdate = block.timestamp */\n      swap2\n      swap1\n      swap2\n      sstore\n        /* \"StakingContract.sol\":3143:3179  stakers[msg.sender].unclaimedRewards */\n      0x03\n      add\n        /* \"StakingContract.sol\":3143:3183  stakers[msg.sender].unclaimedRewards = 0 */\n      sstore\n        /* \"StakingContract.sol\":3193:3239  rewardsToken.safeTransfer(msg.sender, rewards) */\n      tag_90\n      swap1\n        /* \"StakingContract.sol\":3193:3205  rewardsToken */\n      immutable(\"0x5c4c6aa067b6f8e6cb38e6ab843832a94d1712d661a04d73c517d6a1931a9e5d\")\n      sub(shl(0xa0, 0x01), 0x01)\n        /* \"StakingContract.sol\":3193:3218  rewardsToken.safeTransfer */\n      and\n      swap1\n        /* \"StakingContract.sol\":3231:3238  rewards */\n      dup4\n        /* \"StakingContract.sol\":3193:3218  rewardsToken.safeTransfer */\n      tag_99\n        /* \"StakingContract.sol\":3193:3239  rewardsToken.safeTransfer(msg.sender, rewards) */\n      jump\t// in\n        /* \"StakingContract.sol\":3463:4135  function getStakedTokens(address _user) public view returns (StakedToken[] memory) {... */\n    tag_23:\n      sub(shl(0xa0, 0x01), 0x01)\n        /* \"StakingContract.sol\":3560:3574  stakers[_user] */\n      dup2\n      and\n        /* \"StakingContract.sol\":3590:3591  0 */\n      0x00\n        /* \"StakingContract.sol\":3560:3574  stakers[_user] */\n      swap1\n      dup2\n      mstore\n        /* \"StakingContract.sol\":3560:3567  stakers */\n      0x02\n        /* \"StakingContract.sol\":3560:3574  stakers[_user] */\n      0x20\n      mstore\n      0x40\n      swap1\n      keccak256\n        /* \"StakingContract.sol\":3560:3587  stakers[_user].amountStaked */\n      sload\n        /* \"StakingContract.sol\":3524:3544  StakedToken[] memory */\n      0x60\n      swap1\n        /* \"StakingContract.sol\":3560:3591  stakers[_user].amountStaked > 0 */\n      iszero\n        /* \"StakingContract.sol\":3556:4129  if (stakers[_user].amountStaked > 0) {... */\n      tag_101\n      jumpi\n      sub(shl(0xa0, 0x01), 0x01)\n        /* \"StakingContract.sol\":3662:3676  stakers[_user] */\n      dup3\n      and\n        /* \"StakingContract.sol\":3607:3641  StakedToken[] memory _stakedTokens */\n      0x00\n        /* \"StakingContract.sol\":3662:3676  stakers[_user] */\n      swap1\n      dup2\n      mstore\n        /* \"StakingContract.sol\":3662:3669  stakers */\n      0x02\n        /* \"StakingContract.sol\":3662:3676  stakers[_user] */\n      0x20\n      mstore\n      0x40\n      dup2\n      keccak256\n        /* \"StakingContract.sol\":3662:3689  stakers[_user].amountStaked */\n      sload\n        /* \"StakingContract.sol\":3644:3690  new StakedToken[](stakers[_user].amountStaked) */\n      0xffffffffffffffff\n      dup2\n      gt\n      iszero\n      tag_103\n      jumpi\n      tag_103\n      tag_104\n      jump\t// in\n    tag_103:\n      mload(0x40)\n      swap1\n      dup1\n      dup3\n      mstore\n      dup1\n      0x20\n      mul\n      0x20\n      add\n      dup3\n      add\n      0x40\n      mstore\n      dup1\n      iszero\n      tag_105\n      jumpi\n      dup2\n      0x20\n      add\n    tag_106:\n      0x40\n      dup1\n      mload\n      dup1\n      dup3\n      add\n      swap1\n      swap2\n      mstore\n      0x00\n      dup1\n      dup3\n      mstore\n      0x20\n      dup3\n      add\n      mstore\n      dup2\n      mstore\n      0x20\n      add\n      swap1\n      0x01\n      swap1\n      sub\n      swap1\n      dup2\n      tag_106\n      jumpi\n      swap1\n      pop\n    tag_105:\n      pop\n        /* \"StakingContract.sol\":3607:3690  StakedToken[] memory _stakedTokens = new StakedToken[](stakers[_user].amountStaked) */\n      swap1\n      pop\n        /* \"StakingContract.sol\":3704:3718  uint256 _index */\n      0x00\n        /* \"StakingContract.sol\":3742:3751  uint256 j */\n      dup1\n        /* \"StakingContract.sol\":3737:4018  for (uint256 j = 0; j < stakers[_user].stakedTokens.length; j++) {... */\n    tag_109:\n      sub(shl(0xa0, 0x01), 0x01)\n        /* \"StakingContract.sol\":3761:3775  stakers[_user] */\n      dup6\n      and\n      0x00\n      swap1\n      dup2\n      mstore\n        /* \"StakingContract.sol\":3761:3768  stakers */\n      0x02\n        /* \"StakingContract.sol\":3761:3775  stakers[_user] */\n      0x20\n      mstore\n      0x40\n      swap1\n      keccak256\n        /* \"StakingContract.sol\":3761:3788  stakers[_user].stakedTokens */\n      0x01\n      add\n        /* \"StakingContract.sol\":3761:3795  stakers[_user].stakedTokens.length */\n      sload\n        /* \"StakingContract.sol\":3757:3795  j < stakers[_user].stakedTokens.length */\n      dup2\n      lt\n        /* \"StakingContract.sol\":3737:4018  for (uint256 j = 0; j < stakers[_user].stakedTokens.length; j++) {... */\n      iszero\n      tag_110\n      jumpi\n      sub(shl(0xa0, 0x01), 0x01)\n        /* \"StakingContract.sol\":3824:3838  stakers[_user] */\n      dup6\n      and\n        /* \"StakingContract.sol\":3874:3875  0 */\n      0x00\n        /* \"StakingContract.sol\":3824:3838  stakers[_user] */\n      swap1\n      dup2\n      mstore\n        /* \"StakingContract.sol\":3824:3831  stakers */\n      0x02\n        /* \"StakingContract.sol\":3824:3838  stakers[_user] */\n      0x20\n      mstore\n      0x40\n      dup2\n      keccak256\n        /* \"StakingContract.sol\":3824:3851  stakers[_user].stakedTokens */\n      0x01\n      add\n        /* \"StakingContract.sol\":3824:3854  stakers[_user].stakedTokens[j] */\n      dup1\n      sload\n        /* \"StakingContract.sol\":3852:3853  j */\n      dup4\n      swap1\n        /* \"StakingContract.sol\":3824:3854  stakers[_user].stakedTokens[j] */\n      dup2\n      lt\n      tag_113\n      jumpi\n      tag_113\n      tag_71\n      jump\t// in\n    tag_113:\n      0x00\n      swap2\n      dup3\n      mstore\n      0x20\n      swap1\n      swap2\n      keccak256\n      0x02\n      swap1\n      swap2\n      mul\n      add\n        /* \"StakingContract.sol\":3824:3861  stakers[_user].stakedTokens[j].staker */\n      sload\n      sub(shl(0xa0, 0x01), 0x01)\n      and\n        /* \"StakingContract.sol\":3824:3877  stakers[_user].stakedTokens[j].staker != (address(0)) */\n      eq\n        /* \"StakingContract.sol\":3820:4004  if (stakers[_user].stakedTokens[j].staker != (address(0))) {... */\n      tag_115\n      jumpi\n      sub(shl(0xa0, 0x01), 0x01)\n        /* \"StakingContract.sol\":3925:3939  stakers[_user] */\n      dup6\n      and\n      0x00\n      swap1\n      dup2\n      mstore\n        /* \"StakingContract.sol\":3925:3932  stakers */\n      0x02\n        /* \"StakingContract.sol\":3925:3939  stakers[_user] */\n      0x20\n      mstore\n      0x40\n      swap1\n      keccak256\n        /* \"StakingContract.sol\":3925:3952  stakers[_user].stakedTokens */\n      0x01\n      add\n        /* \"StakingContract.sol\":3925:3955  stakers[_user].stakedTokens[j] */\n      dup1\n      sload\n        /* \"StakingContract.sol\":3953:3954  j */\n      dup3\n      swap1\n        /* \"StakingContract.sol\":3925:3955  stakers[_user].stakedTokens[j] */\n      dup2\n      lt\n      tag_117\n      jumpi\n      tag_117\n      tag_71\n      jump\t// in\n    tag_117:\n      0x00\n      swap2\n      dup3\n      mstore\n      0x20\n      swap2\n      dup3\n      swap1\n      keccak256\n        /* \"StakingContract.sol\":3901:3955  _stakedTokens[_index] = stakers[_user].stakedTokens[j] */\n      0x40\n      dup1\n      mload\n      dup1\n      dup3\n      add\n      swap1\n      swap2\n      mstore\n        /* \"StakingContract.sol\":3925:3955  stakers[_user].stakedTokens[j] */\n      0x02\n      swap1\n      swap3\n      mul\n      add\n        /* \"StakingContract.sol\":3901:3955  _stakedTokens[_index] = stakers[_user].stakedTokens[j] */\n      dup1\n      sload\n      sub(shl(0xa0, 0x01), 0x01)\n      and\n      dup3\n      mstore\n      0x01\n      add\n      sload\n      swap2\n      dup2\n      add\n      swap2\n      swap1\n      swap2\n      mstore\n        /* \"StakingContract.sol\":3901:3922  _stakedTokens[_index] */\n      dup4\n      mload\n        /* \"StakingContract.sol\":3901:3914  _stakedTokens */\n      dup5\n      swap1\n        /* \"StakingContract.sol\":3915:3921  _index */\n      dup5\n      swap1\n        /* \"StakingContract.sol\":3901:3922  _stakedTokens[_index] */\n      dup2\n      lt\n      tag_120\n      jumpi\n      tag_120\n      tag_71\n      jump\t// in\n    tag_120:\n      0x20\n      mul\n      0x20\n      add\n      add\n        /* \"StakingContract.sol\":3901:3955  _stakedTokens[_index] = stakers[_user].stakedTokens[j] */\n      dup2\n      swap1\n      mstore\n      pop\n        /* \"StakingContract.sol\":3977:3985  _index++ */\n      dup2\n      dup1\n      tag_121\n      swap1\n      tag_79\n      jump\t// in\n    tag_121:\n      swap3\n      pop\n      pop\n        /* \"StakingContract.sol\":3820:4004  if (stakers[_user].stakedTokens[j].staker != (address(0))) {... */\n    tag_115:\n        /* \"StakingContract.sol\":3797:3800  j++ */\n      dup1\n      tag_122\n      dup2\n      tag_79\n      jump\t// in\n    tag_122:\n      swap2\n      pop\n      pop\n        /* \"StakingContract.sol\":3737:4018  for (uint256 j = 0; j < stakers[_user].stakedTokens.length; j++) {... */\n      jump(tag_109)\n    tag_110:\n      pop\n        /* \"StakingContract.sol\":4039:4052  _stakedTokens */\n      swap1\n      swap4\n        /* \"StakingContract.sol\":3463:4135  function getStakedTokens(address _user) public view returns (StakedToken[] memory) {... */\n      swap3\n      pop\n      pop\n      pop\n      jump\t// out\n        /* \"StakingContract.sol\":3556:4129  if (stakers[_user].amountStaked > 0) {... */\n    tag_101:\n        /* \"StakingContract.sol\":4098:4118  new StakedToken[](0) */\n      0x40\n      dup1\n      mload\n        /* \"StakingContract.sol\":4116:4117  0 */\n      0x00\n        /* \"StakingContract.sol\":4098:4118  new StakedToken[](0) */\n      dup1\n      dup3\n      mstore\n      0x20\n      dup3\n      add\n      swap1\n      swap3\n      mstore\n      swap1\n      jump(tag_126)\n    tag_127:\n      0x40\n      dup1\n      mload\n      dup1\n      dup3\n      add\n      swap1\n      swap2\n      mstore\n      0x00\n      dup1\n      dup3\n      mstore\n      0x20\n      dup3\n      add\n      mstore\n      dup2\n      mstore\n      0x20\n      add\n      swap1\n      0x01\n      swap1\n      sub\n      swap1\n      dup2\n      tag_127\n      jumpi\n      swap1\n      pop\n    tag_126:\n      pop\n        /* \"StakingContract.sol\":4091:4118  return new StakedToken[](0) */\n      swap3\n        /* \"StakingContract.sol\":3463:4135  function getStakedTokens(address _user) public view returns (StakedToken[] memory) {... */\n      swap2\n      pop\n      pop\n      jump\t// out\n        /* \"StakingContract.sol\":1039:1781  function stake(uint256 _tokenId) external nonReentrant {... */\n    tag_42:\n        /* \"@openzeppelin/contracts/security/ReentrancyGuard.sol\":2261:2282   */\n      tag_130\n        /* \"@openzeppelin/contracts/security/ReentrancyGuard.sol\":2261:2280   */\n      tag_54\n        /* \"@openzeppelin/contracts/security/ReentrancyGuard.sol\":2261:2282   */\n      jump\t// in\n    tag_130:\n        /* \"StakingContract.sol\":1116:1126  msg.sender */\n      caller\n        /* \"StakingContract.sol\":1143:1144  0 */\n      0x00\n        /* \"StakingContract.sol\":1108:1127  stakers[msg.sender] */\n      swap1\n      dup2\n      mstore\n        /* \"StakingContract.sol\":1108:1115  stakers */\n      0x02\n        /* \"StakingContract.sol\":1108:1127  stakers[msg.sender] */\n      0x20\n      mstore\n      0x40\n      swap1\n      keccak256\n        /* \"StakingContract.sol\":1108:1140  stakers[msg.sender].amountStaked */\n      sload\n        /* \"StakingContract.sol\":1108:1144  stakers[msg.sender].amountStaked > 0 */\n      iszero\n        /* \"StakingContract.sol\":1104:1278  if (stakers[msg.sender].amountStaked > 0) {... */\n      tag_132\n      jumpi\n        /* \"StakingContract.sol\":1160:1175  uint256 rewards */\n      0x00\n        /* \"StakingContract.sol\":1178:1206  calculateRewards(msg.sender) */\n      tag_133\n        /* \"StakingContract.sol\":1195:1205  msg.sender */\n      caller\n        /* \"StakingContract.sol\":1178:1194  calculateRewards */\n      tag_63\n        /* \"StakingContract.sol\":1178:1206  calculateRewards(msg.sender) */\n      jump\t// in\n    tag_133:\n        /* \"StakingContract.sol\":1228:1238  msg.sender */\n      caller\n        /* \"StakingContract.sol\":1220:1239  stakers[msg.sender] */\n      0x00\n      swap1\n      dup2\n      mstore\n        /* \"StakingContract.sol\":1220:1227  stakers */\n      0x02\n        /* \"StakingContract.sol\":1220:1239  stakers[msg.sender] */\n      0x20\n      mstore\n      0x40\n      dup2\n      keccak256\n        /* \"StakingContract.sol\":1220:1256  stakers[msg.sender].unclaimedRewards */\n      0x03\n      add\n        /* \"StakingContract.sol\":1220:1267  stakers[msg.sender].unclaimedRewards += rewards */\n      dup1\n      sload\n        /* \"StakingContract.sol\":1160:1206  uint256 rewards = calculateRewards(msg.sender) */\n      swap3\n      swap4\n      pop\n      dup4\n      swap3\n        /* \"StakingContract.sol\":1220:1256  stakers[msg.sender].unclaimedRewards */\n      swap1\n      swap2\n        /* \"StakingContract.sol\":1220:1239  stakers[msg.sender] */\n      swap1\n        /* \"StakingContract.sol\":1220:1267  stakers[msg.sender].unclaimedRewards += rewards */\n      tag_134\n      swap1\n        /* \"StakingContract.sol\":1160:1206  uint256 rewards = calculateRewards(msg.sender) */\n      dup5\n      swap1\n        /* \"StakingContract.sol\":1220:1267  stakers[msg.sender].unclaimedRewards += rewards */\n      tag_65\n      jump\t// in\n    tag_134:\n      swap1\n      swap2\n      sstore\n      pop\n      pop\n      pop\n        /* \"StakingContract.sol\":1104:1278  if (stakers[msg.sender].amountStaked > 0) {... */\n    tag_132:\n        /* \"StakingContract.sol\":1309:1340  nftCollection.ownerOf(_tokenId) */\n      mload(0x40)\n      shl(0xe1, 0x31a9108f)\n      dup2\n      mstore\n      0x04\n      dup2\n      add\n        /* \"#utility.yul\":2649:2674   */\n      dup3\n      swap1\n      mstore\n        /* \"StakingContract.sol\":1344:1354  msg.sender */\n      caller\n      swap1\n      sub(shl(0xa0, 0x01), 0x01)\n        /* \"StakingContract.sol\":1309:1322  nftCollection */\n      immutable(\"0x8e8fab5f003314da8d1873ea7720e8d9f47650136d916064d1edb8a11d682624\")\n        /* \"StakingContract.sol\":1309:1330  nftCollection.ownerOf */\n      and\n      swap1\n      0x6352211e\n      swap1\n        /* \"#utility.yul\":2622:2640   */\n      0x24\n      add\n        /* \"StakingContract.sol\":1309:1340  nftCollection.ownerOf(_tokenId) */\n      0x20\n      mload(0x40)\n      dup1\n      dup4\n      sub\n      dup2\n      dup7\n      gas\n      staticcall\n      iszero\n      dup1\n      iszero\n      tag_137\n      jumpi\n      returndatasize\n      0x00\n      dup1\n      returndatacopy\n      revert(0x00, returndatasize)\n    tag_137:\n      pop\n      pop\n      pop\n      pop\n      mload(0x40)\n      returndatasize\n      not(0x1f)\n      0x1f\n      dup3\n      add\n      and\n      dup3\n      add\n      dup1\n      0x40\n      mstore\n      pop\n      dup2\n      add\n      swap1\n      tag_138\n      swap2\n      swap1\n      tag_139\n      jump\t// in\n    tag_138:\n      sub(shl(0xa0, 0x01), 0x01)\n        /* \"StakingContract.sol\":1309:1354  nftCollection.ownerOf(_tokenId) == msg.sender */\n      and\n      eq\n        /* \"StakingContract.sol\":1288:1405  require(... */\n      tag_140\n      jumpi\n      mload(0x40)\n      shl(0xe5, 0x461bcd)\n      dup2\n      mstore\n        /* \"#utility.yul\":3241:3243   */\n      0x20\n        /* \"StakingContract.sol\":1288:1405  require(... */\n      0x04\n      dup3\n      add\n        /* \"#utility.yul\":3223:3244   */\n      mstore\n        /* \"#utility.yul\":3280:3282   */\n      0x19\n        /* \"#utility.yul\":3260:3278   */\n      0x24\n      dup3\n      add\n        /* \"#utility.yul\":3253:3283   */\n      mstore\n        /* \"#utility.yul\":3319:3346   */\n      0x596f7520646f6e2774206f776e207468697320746f6b656e2100000000000000\n        /* \"#utility.yul\":3299:3317   */\n      0x44\n      dup3\n      add\n        /* \"#utility.yul\":3292:3347   */\n      mstore\n        /* \"#utility.yul\":3364:3382   */\n      0x64\n      add\n        /* \"StakingContract.sol\":1288:1405  require(... */\n      tag_57\n        /* \"#utility.yul\":3039:3388   */\n      jump\n        /* \"StakingContract.sol\":1288:1405  require(... */\n    tag_140:\n        /* \"StakingContract.sol\":1416:1479  nftCollection.transferFrom(msg.sender, address(this), _tokenId) */\n      mload(0x40)\n      shl(0xe0, 0x23b872dd)\n      dup2\n      mstore\n        /* \"StakingContract.sol\":1443:1453  msg.sender */\n      caller\n        /* \"StakingContract.sol\":1416:1479  nftCollection.transferFrom(msg.sender, address(this), _tokenId) */\n      0x04\n      dup3\n      add\n        /* \"#utility.yul\":4331:4365   */\n      mstore\n        /* \"StakingContract.sol\":1463:1467  this */\n      address\n        /* \"#utility.yul\":4381:4399   */\n      0x24\n      dup3\n      add\n        /* \"#utility.yul\":4374:4417   */\n      mstore\n        /* \"#utility.yul\":4433:4451   */\n      0x44\n      dup2\n      add\n        /* \"#utility.yul\":4426:4460   */\n      dup3\n      swap1\n      mstore\n        /* \"StakingContract.sol\":1416:1429  nftCollection */\n      immutable(\"0x8e8fab5f003314da8d1873ea7720e8d9f47650136d916064d1edb8a11d682624\")\n      sub(shl(0xa0, 0x01), 0x01)\n        /* \"StakingContract.sol\":1416:1442  nftCollection.transferFrom */\n      and\n      swap1\n      0x23b872dd\n      swap1\n        /* \"#utility.yul\":4243:4261   */\n      0x64\n      add\n        /* \"StakingContract.sol\":1416:1479  nftCollection.transferFrom(msg.sender, address(this), _tokenId) */\n      0x00\n      mload(0x40)\n      dup1\n      dup4\n      sub\n      dup2\n      0x00\n      dup8\n      dup1\n      extcodesize\n      iszero\n      dup1\n      iszero\n      tag_143\n      jumpi\n      0x00\n      dup1\n      revert\n    tag_143:\n      pop\n      gas\n      call\n      iszero\n      dup1\n      iszero\n      tag_145\n      jumpi\n      returndatasize\n      0x00\n      dup1\n      returndatacopy\n      revert(0x00, returndatasize)\n    tag_145:\n      pop\n      pop\n        /* \"StakingContract.sol\":1523:1556  StakedToken(msg.sender, _tokenId) */\n      0x40\n      dup1\n      mload\n      dup1\n      dup3\n      add\n      dup3\n      mstore\n        /* \"StakingContract.sol\":1535:1545  msg.sender */\n      caller\n        /* \"StakingContract.sol\":1523:1556  StakedToken(msg.sender, _tokenId) */\n      dup1\n      dup3\n      mstore\n      0x20\n      dup1\n      dup4\n      add\n      dup8\n      dup2\n      mstore\n      0x00\n        /* \"StakingContract.sol\":1567:1586  stakers[msg.sender] */\n      dup4\n      dup2\n      mstore\n        /* \"StakingContract.sol\":1567:1574  stakers */\n      0x02\n        /* \"StakingContract.sol\":1567:1586  stakers[msg.sender] */\n      dup1\n      dup5\n      mstore\n      swap6\n      dup2\n      keccak256\n        /* \"StakingContract.sol\":1567:1599  stakers[msg.sender].stakedTokens */\n      0x01\n      dup1\n      dup3\n      add\n        /* \"StakingContract.sol\":1567:1617  stakers[msg.sender].stakedTokens.push(stakedToken) */\n      dup1\n      sload\n      dup1\n      dup4\n      add\n      dup3\n      sstore\n      swap1\n      dup5\n      mstore\n      swap5\n      dup4\n      keccak256\n      dup8\n      mload\n      swap6\n      swap1\n      swap9\n      mul\n      swap1\n      swap8\n      add\n      dup1\n      sload\n      not(sub(shl(0xa0, 0x01), 0x01))\n      and\n      sub(shl(0xa0, 0x01), 0x01)\n      swap1\n      swap6\n      and\n      swap5\n      swap1\n      swap5\n      or\n      dup5\n      sstore\n      swap2\n      mload\n      swap3\n      swap1\n      swap6\n      add\n      swap2\n      swap1\n      swap2\n      sstore\n        /* \"StakingContract.sol\":1628:1647  stakers[msg.sender] */\n      swap1\n      dup4\n      mstore\n        /* \"StakingContract.sol\":1628:1662  stakers[msg.sender].amountStaked++ */\n      dup1\n      sload\n        /* \"StakingContract.sol\":1523:1556  StakedToken(msg.sender, _tokenId) */\n      swap2\n      swap5\n      pop\n        /* \"StakingContract.sol\":1628:1662  stakers[msg.sender].amountStaked++ */\n      swap1\n      swap3\n      pop\n        /* \"StakingContract.sol\":1567:1586  stakers[msg.sender] */\n      swap1\n        /* \"StakingContract.sol\":1628:1662  stakers[msg.sender].amountStaked++ */\n      tag_147\n      dup4\n      tag_79\n      jump\t// in\n    tag_147:\n      swap1\n      swap2\n      sstore\n      pop\n      pop\n      pop\n        /* \"StakingContract.sol\":1673:1696  stakerAddress[_tokenId] */\n      0x00\n      dup2\n      dup2\n      mstore\n        /* \"StakingContract.sol\":1673:1686  stakerAddress */\n      0x03\n        /* \"StakingContract.sol\":1673:1696  stakerAddress[_tokenId] */\n      0x20\n      swap1\n      dup2\n      mstore\n      0x40\n      dup1\n      dup4\n      keccak256\n        /* \"StakingContract.sol\":1673:1709  stakerAddress[_tokenId] = msg.sender */\n      dup1\n      sload\n      not(sub(shl(0xa0, 0x01), 0x01))\n      and\n        /* \"StakingContract.sol\":1699:1709  msg.sender */\n      caller\n        /* \"StakingContract.sol\":1673:1709  stakerAddress[_tokenId] = msg.sender */\n      swap1\n      dup2\n      or\n      swap1\n      swap2\n      sstore\n        /* \"StakingContract.sol\":1720:1739  stakers[msg.sender] */\n      dup4\n      mstore\n        /* \"StakingContract.sol\":1720:1727  stakers */\n      0x02\n        /* \"StakingContract.sol\":1720:1739  stakers[msg.sender] */\n      swap2\n      dup3\n      swap1\n      mstore\n      swap1\n      swap2\n      keccak256\n        /* \"StakingContract.sol\":1759:1774  block.timestamp */\n      timestamp\n        /* \"StakingContract.sol\":1720:1756  stakers[msg.sender].timeOfLastUpdate */\n      swap2\n      add\n        /* \"StakingContract.sol\":1720:1774  stakers[msg.sender].timeOfLastUpdate = block.timestamp */\n      sstore\n        /* \"@openzeppelin/contracts/security/ReentrancyGuard.sol\":2303:2323   */\n      tag_90\n        /* \"@openzeppelin/contracts/security/ReentrancyGuard.sol\":1716:1717   */\n      0x01\n        /* \"@openzeppelin/contracts/security/ReentrancyGuard.sol\":2809:2816   */\n      0x00\n        /* \"@openzeppelin/contracts/security/ReentrancyGuard.sol\":2809:2831   */\n      sstore\n        /* \"@openzeppelin/contracts/security/ReentrancyGuard.sol\":2629:2838   */\n      jump\n        /* \"StakingContract.sol\":3252:3457  function availableRewards(address _staker) public view returns (uint256) {... */\n    tag_49:\n      sub(shl(0xa0, 0x01), 0x01)\n        /* \"StakingContract.sol\":3393:3409  stakers[_staker] */\n      dup2\n      and\n        /* \"StakingContract.sol\":3316:3323  uint256 */\n      0x00\n        /* \"StakingContract.sol\":3393:3409  stakers[_staker] */\n      swap1\n      dup2\n      mstore\n        /* \"StakingContract.sol\":3393:3400  stakers */\n      0x02\n        /* \"StakingContract.sol\":3393:3409  stakers[_staker] */\n      0x20\n      mstore\n      0x40\n      dup2\n      keccak256\n        /* \"StakingContract.sol\":3393:3426  stakers[_staker].unclaimedRewards */\n      0x03\n      add\n      sload\n        /* \"StakingContract.sol\":3316:3323  uint256 */\n      dup2\n      swap1\n        /* \"StakingContract.sol\":3353:3378  calculateRewards(_staker) */\n      tag_150\n        /* \"StakingContract.sol\":3401:3408  _staker */\n      dup5\n        /* \"StakingContract.sol\":3353:3369  calculateRewards */\n      tag_63\n        /* \"StakingContract.sol\":3353:3378  calculateRewards(_staker) */\n      jump\t// in\n    tag_150:\n        /* \"StakingContract.sol\":3353:3426  calculateRewards(_staker) +... */\n      tag_151\n      swap2\n      swap1\n      tag_65\n      jump\t// in\n    tag_151:\n        /* \"StakingContract.sol\":3335:3426  uint256 rewards = calculateRewards(_staker) +... */\n      swap4\n        /* \"StakingContract.sol\":3252:3457  function availableRewards(address _staker) public view returns (uint256) {... */\n      swap3\n      pop\n      pop\n      pop\n      jump\t// out\n        /* \"@openzeppelin/contracts/security/ReentrancyGuard.sol\":2336:2623   */\n    tag_54:\n        /* \"@openzeppelin/contracts/security/ReentrancyGuard.sol\":1759:1760   */\n      0x02\n        /* \"@openzeppelin/contracts/security/ReentrancyGuard.sol\":2468:2475   */\n      sload(0x00)\n        /* \"@openzeppelin/contracts/security/ReentrancyGuard.sol\":2468:2487   */\n      sub\n        /* \"@openzeppelin/contracts/security/ReentrancyGuard.sol\":2460:2523   */\n      tag_153\n      jumpi\n      mload(0x40)\n      shl(0xe5, 0x461bcd)\n      dup2\n      mstore\n        /* \"#utility.yul\":5418:5420   */\n      0x20\n        /* \"@openzeppelin/contracts/security/ReentrancyGuard.sol\":2460:2523   */\n      0x04\n      dup3\n      add\n        /* \"#utility.yul\":5400:5421   */\n      mstore\n        /* \"#utility.yul\":5457:5459   */\n      0x1f\n        /* \"#utility.yul\":5437:5455   */\n      0x24\n      dup3\n      add\n        /* \"#utility.yul\":5430:5460   */\n      mstore\n        /* \"#utility.yul\":5496:5529   */\n      0x5265656e7472616e637947756172643a207265656e7472616e742063616c6c00\n        /* \"#utility.yul\":5476:5494   */\n      0x44\n      dup3\n      add\n        /* \"#utility.yul\":5469:5530   */\n      mstore\n        /* \"#utility.yul\":5547:5565   */\n      0x64\n      add\n        /* \"@openzeppelin/contracts/security/ReentrancyGuard.sol\":2460:2523   */\n      tag_57\n        /* \"#utility.yul\":5216:5571   */\n      jump\n        /* \"@openzeppelin/contracts/security/ReentrancyGuard.sol\":2460:2523   */\n    tag_153:\n        /* \"@openzeppelin/contracts/security/ReentrancyGuard.sol\":1759:1760   */\n      0x02\n        /* \"@openzeppelin/contracts/security/ReentrancyGuard.sol\":2598:2605   */\n      0x00\n        /* \"@openzeppelin/contracts/security/ReentrancyGuard.sol\":2598:2616   */\n      sstore\n        /* \"@openzeppelin/contracts/security/ReentrancyGuard.sol\":2336:2623   */\n      jump\t// out\n        /* \"StakingContract.sol\":4141:4439  function calculateRewards(address _staker)... */\n    tag_63:\n        /* \"StakingContract.sol\":4402:4416  rewardsPerHour */\n      sload(0x01)\n      sub(shl(0xa0, 0x01), 0x01)\n        /* \"StakingContract.sol\":4359:4375  stakers[_staker] */\n      dup3\n      and\n        /* \"StakingContract.sol\":4231:4247  uint256 _rewards */\n      0x00\n        /* \"StakingContract.sol\":4359:4375  stakers[_staker] */\n      swap1\n      dup2\n      mstore\n        /* \"StakingContract.sol\":4359:4366  stakers */\n      0x02\n        /* \"StakingContract.sol\":4359:4375  stakers[_staker] */\n      0x20\n      dup2\n      swap1\n      mstore\n      0x40\n      dup3\n      keccak256\n        /* \"StakingContract.sol\":4359:4388  stakers[_staker].amountStaked */\n      dup1\n      sload\n        /* \"StakingContract.sol\":4306:4339  stakers[_staker].timeOfLastUpdate */\n      swap2\n      add\n      sload\n        /* \"StakingContract.sol\":4231:4247  uint256 _rewards */\n      swap2\n      swap3\n        /* \"StakingContract.sol\":4420:4431  10000000000 */\n      0x02540be400\n      swap3\n        /* \"StakingContract.sol\":4402:4416  rewardsPerHour */\n      swap1\n      swap2\n        /* \"StakingContract.sol\":4359:4388  stakers[_staker].amountStaked */\n      swap1\n        /* \"StakingContract.sol\":4288:4339  block.timestamp - stakers[_staker].timeOfLastUpdate */\n      tag_157\n      swap1\n        /* \"StakingContract.sol\":4288:4303  block.timestamp */\n      timestamp\n        /* \"StakingContract.sol\":4288:4339  block.timestamp - stakers[_staker].timeOfLastUpdate */\n      tag_158\n      jump\t// in\n    tag_157:\n        /* \"StakingContract.sol\":4287:4388  (block.timestamp - stakers[_staker].timeOfLastUpdate) *... */\n      tag_159\n      swap2\n      swap1\n      tag_160\n      jump\t// in\n    tag_159:\n        /* \"StakingContract.sol\":4272:4416  (... */\n      tag_161\n      swap2\n      swap1\n      tag_160\n      jump\t// in\n    tag_161:\n        /* \"StakingContract.sol\":4271:4431  ((... */\n      tag_162\n      swap2\n      swap1\n      tag_163\n      jump\t// in\n    tag_162:\n        /* \"StakingContract.sol\":4263:4432  return (((... */\n      swap3\n        /* \"StakingContract.sol\":4141:4439  function calculateRewards(address _staker)... */\n      swap2\n      pop\n      pop\n      jump\t// out\n        /* \"@openzeppelin/contracts/security/ReentrancyGuard.sol\":2629:2838   */\n    tag_91:\n        /* \"@openzeppelin/contracts/security/ReentrancyGuard.sol\":1716:1717   */\n      0x01\n        /* \"@openzeppelin/contracts/security/ReentrancyGuard.sol\":2809:2816   */\n      0x00\n        /* \"@openzeppelin/contracts/security/ReentrancyGuard.sol\":2809:2831   */\n      sstore\n        /* \"@openzeppelin/contracts/security/ReentrancyGuard.sol\":2629:2838   */\n      jump\t// out\n        /* \"@openzeppelin/contracts/token/ERC20/utils/SafeERC20.sol\":763:968   */\n    tag_99:\n        /* \"@openzeppelin/contracts/token/ERC20/utils/SafeERC20.sol\":902:960   */\n      0x40\n      dup1\n      mload\n      sub(shl(0xa0, 0x01), 0x01)\n        /* \"#utility.yul\":6296:6351   */\n      dup5\n      and\n        /* \"@openzeppelin/contracts/token/ERC20/utils/SafeERC20.sol\":902:960   */\n      0x24\n      dup3\n      add\n        /* \"#utility.yul\":6278:6352   */\n      mstore\n        /* \"#utility.yul\":6368:6386   */\n      0x44\n      dup1\n      dup3\n      add\n        /* \"#utility.yul\":6361:6395   */\n      dup5\n      swap1\n      mstore\n        /* \"@openzeppelin/contracts/token/ERC20/utils/SafeERC20.sol\":902:960   */\n      dup3\n      mload\n      dup1\n      dup4\n      sub\n      swap1\n      swap2\n      add\n      dup2\n      mstore\n        /* \"#utility.yul\":6251:6269   */\n      0x64\n      swap1\n      swap2\n      add\n        /* \"@openzeppelin/contracts/token/ERC20/utils/SafeERC20.sol\":902:960   */\n      swap1\n      swap2\n      mstore\n      0x20\n      dup2\n      add\n      dup1\n      mload\n      0xffffffffffffffffffffffffffffffffffffffffffffffffffffffff\n      and\n      shl(0xe0, 0xa9059cbb)\n      or\n      swap1\n      mstore\n        /* \"@openzeppelin/contracts/token/ERC20/utils/SafeERC20.sol\":875:961   */\n      tag_166\n      swap1\n        /* \"@openzeppelin/contracts/token/ERC20/utils/SafeERC20.sol\":895:900   */\n      dup5\n      swap1\n        /* \"@openzeppelin/contracts/token/ERC20/utils/SafeERC20.sol\":875:894   */\n      tag_169\n        /* \"@openzeppelin/contracts/token/ERC20/utils/SafeERC20.sol\":875:961   */\n      jump\t// in\n    tag_166:\n        /* \"@openzeppelin/contracts/token/ERC20/utils/SafeERC20.sol\":763:968   */\n      pop\n      pop\n      pop\n      jump\t// out\n        /* \"@openzeppelin/contracts/token/ERC20/utils/SafeERC20.sol\":3747:4453   */\n    tag_169:\n        /* \"@openzeppelin/contracts/token/ERC20/utils/SafeERC20.sol\":4166:4189   */\n      0x00\n        /* \"@openzeppelin/contracts/token/ERC20/utils/SafeERC20.sol\":4192:4261   */\n      tag_171\n        /* \"@openzeppelin/contracts/token/ERC20/utils/SafeERC20.sol\":4220:4224   */\n      dup3\n        /* \"@openzeppelin/contracts/token/ERC20/utils/SafeERC20.sol\":4192:4261   */\n      mload(0x40)\n      dup1\n      0x40\n      add\n      0x40\n      mstore\n      dup1\n      0x20\n      dup2\n      mstore\n      0x20\n      add\n      0x5361666545524332303a206c6f772d6c6576656c2063616c6c206661696c6564\n      dup2\n      mstore\n      pop\n        /* \"@openzeppelin/contracts/token/ERC20/utils/SafeERC20.sol\":4200:4205   */\n      dup6\n      sub(shl(0xa0, 0x01), 0x01)\n        /* \"@openzeppelin/contracts/token/ERC20/utils/SafeERC20.sol\":4192:4219   */\n      and\n      tag_172\n      swap1\n        /* \"@openzeppelin/contracts/token/ERC20/utils/SafeERC20.sol\":4192:4261   */\n      swap3\n      swap2\n      swap1\n      0xffffffff\n      and\n      jump\t// in\n    tag_171:\n        /* \"@openzeppelin/contracts/token/ERC20/utils/SafeERC20.sol\":4275:4292   */\n      dup1\n      mload\n        /* \"@openzeppelin/contracts/token/ERC20/utils/SafeERC20.sol\":4166:4261   */\n      swap1\n      swap2\n      pop\n        /* \"@openzeppelin/contracts/token/ERC20/utils/SafeERC20.sol\":4275:4296   */\n      iszero\n        /* \"@openzeppelin/contracts/token/ERC20/utils/SafeERC20.sol\":4271:4447   */\n      tag_166\n      jumpi\n        /* \"@openzeppelin/contracts/token/ERC20/utils/SafeERC20.sol\":4370:4380   */\n      dup1\n        /* \"@openzeppelin/contracts/token/ERC20/utils/SafeERC20.sol\":4359:4389   */\n      dup1\n      0x20\n      add\n      swap1\n      mload\n      dup2\n      add\n      swap1\n      tag_174\n      swap2\n      swap1\n      tag_175\n      jump\t// in\n    tag_174:\n        /* \"@openzeppelin/contracts/token/ERC20/utils/SafeERC20.sol\":4351:4436   */\n      tag_166\n      jumpi\n      mload(0x40)\n      shl(0xe5, 0x461bcd)\n      dup2\n      mstore\n        /* \"#utility.yul\":6890:6892   */\n      0x20\n        /* \"@openzeppelin/contracts/token/ERC20/utils/SafeERC20.sol\":4351:4436   */\n      0x04\n      dup3\n      add\n        /* \"#utility.yul\":6872:6893   */\n      mstore\n        /* \"#utility.yul\":6929:6931   */\n      0x2a\n        /* \"#utility.yul\":6909:6927   */\n      0x24\n      dup3\n      add\n        /* \"#utility.yul\":6902:6932   */\n      mstore\n        /* \"#utility.yul\":6968:7002   */\n      0x5361666545524332303a204552433230206f7065726174696f6e20646964206e\n        /* \"#utility.yul\":6948:6966   */\n      0x44\n      dup3\n      add\n        /* \"#utility.yul\":6941:7003   */\n      mstore\n        /* \"#utility.yul\":7039:7051   */\n      0x6f74207375636365656400000000000000000000000000000000000000000000\n        /* \"#utility.yul\":7019:7037   */\n      0x64\n      dup3\n      add\n        /* \"#utility.yul\":7012:7052   */\n      mstore\n        /* \"#utility.yul\":7069:7088   */\n      0x84\n      add\n        /* \"@openzeppelin/contracts/token/ERC20/utils/SafeERC20.sol\":4351:4436   */\n      tag_57\n        /* \"#utility.yul\":6688:7094   */\n      jump\n        /* \"@openzeppelin/contracts/utils/Address.sol\":3873:4096   */\n    tag_172:\n        /* \"@openzeppelin/contracts/utils/Address.sol\":4006:4018   */\n      0x60\n        /* \"@openzeppelin/contracts/utils/Address.sol\":4037:4089   */\n      tag_180\n        /* \"@openzeppelin/contracts/utils/Address.sol\":4059:4065   */\n      dup5\n        /* \"@openzeppelin/contracts/utils/Address.sol\":4067:4071   */\n      dup5\n        /* \"@openzeppelin/contracts/utils/Address.sol\":4073:4074   */\n      0x00\n        /* \"@openzeppelin/contracts/utils/Address.sol\":4076:4088   */\n      dup6\n        /* \"@openzeppelin/contracts/utils/Address.sol\":4037:4058   */\n      tag_181\n        /* \"@openzeppelin/contracts/utils/Address.sol\":4037:4089   */\n      jump\t// in\n    tag_180:\n        /* \"@openzeppelin/contracts/utils/Address.sol\":4030:4089   */\n      swap5\n        /* \"@openzeppelin/contracts/utils/Address.sol\":3873:4096   */\n      swap4\n      pop\n      pop\n      pop\n      pop\n      jump\t// out\n        /* \"@openzeppelin/contracts/utils/Address.sol\":4960:5406   */\n    tag_181:\n        /* \"@openzeppelin/contracts/utils/Address.sol\":5125:5137   */\n      0x60\n        /* \"@openzeppelin/contracts/utils/Address.sol\":5182:5187   */\n      dup3\n        /* \"@openzeppelin/contracts/utils/Address.sol\":5157:5178   */\n      selfbalance\n        /* \"@openzeppelin/contracts/utils/Address.sol\":5157:5187   */\n      lt\n      iszero\n        /* \"@openzeppelin/contracts/utils/Address.sol\":5149:5230   */\n      tag_183\n      jumpi\n      mload(0x40)\n      shl(0xe5, 0x461bcd)\n      dup2\n      mstore\n        /* \"#utility.yul\":7301:7303   */\n      0x20\n        /* \"@openzeppelin/contracts/utils/Address.sol\":5149:5230   */\n      0x04\n      dup3\n      add\n        /* \"#utility.yul\":7283:7304   */\n      mstore\n        /* \"#utility.yul\":7340:7342   */\n      0x26\n        /* \"#utility.yul\":7320:7338   */\n      0x24\n      dup3\n      add\n        /* \"#utility.yul\":7313:7343   */\n      mstore\n        /* \"#utility.yul\":7379:7413   */\n      0x416464726573733a20696e73756666696369656e742062616c616e636520666f\n        /* \"#utility.yul\":7359:7377   */\n      0x44\n      dup3\n      add\n        /* \"#utility.yul\":7352:7414   */\n      mstore\n        /* \"#utility.yul\":7450:7458   */\n      0x722063616c6c0000000000000000000000000000000000000000000000000000\n        /* \"#utility.yul\":7430:7448   */\n      0x64\n      dup3\n      add\n        /* \"#utility.yul\":7423:7459   */\n      mstore\n        /* \"#utility.yul\":7476:7495   */\n      0x84\n      add\n        /* \"@openzeppelin/contracts/utils/Address.sol\":5149:5230   */\n      tag_57\n        /* \"#utility.yul\":7099:7501   */\n      jump\n        /* \"@openzeppelin/contracts/utils/Address.sol\":5149:5230   */\n    tag_183:\n        /* \"@openzeppelin/contracts/utils/Address.sol\":5241:5253   */\n      0x00\n        /* \"@openzeppelin/contracts/utils/Address.sol\":5255:5278   */\n      dup1\n        /* \"@openzeppelin/contracts/utils/Address.sol\":5282:5288   */\n      dup7\n      sub(shl(0xa0, 0x01), 0x01)\n        /* \"@openzeppelin/contracts/utils/Address.sol\":5282:5293   */\n      and\n        /* \"@openzeppelin/contracts/utils/Address.sol\":5301:5306   */\n      dup6\n        /* \"@openzeppelin/contracts/utils/Address.sol\":5308:5312   */\n      dup8\n        /* \"@openzeppelin/contracts/utils/Address.sol\":5282:5313   */\n      mload(0x40)\n      tag_186\n      swap2\n      swap1\n      tag_187\n      jump\t// in\n    tag_186:\n      0x00\n      mload(0x40)\n      dup1\n      dup4\n      sub\n      dup2\n      dup6\n      dup8\n      gas\n      call\n      swap3\n      pop\n      pop\n      pop\n      returndatasize\n      dup1\n      0x00\n      dup2\n      eq\n      tag_190\n      jumpi\n      mload(0x40)\n      swap2\n      pop\n      and(add(returndatasize, 0x3f), not(0x1f))\n      dup3\n      add\n      0x40\n      mstore\n      returndatasize\n      dup3\n      mstore\n      returndatasize\n      0x00\n      0x20\n      dup5\n      add\n      returndatacopy\n      jump(tag_189)\n    tag_190:\n      0x60\n      swap2\n      pop\n    tag_189:\n      pop\n        /* \"@openzeppelin/contracts/utils/Address.sol\":5240:5313   */\n      swap2\n      pop\n      swap2\n      pop\n        /* \"@openzeppelin/contracts/utils/Address.sol\":5330:5399   */\n      tag_191\n        /* \"@openzeppelin/contracts/utils/Address.sol\":5357:5363   */\n      dup8\n        /* \"@openzeppelin/contracts/utils/Address.sol\":5365:5372   */\n      dup4\n        /* \"@openzeppelin/contracts/utils/Address.sol\":5374:5384   */\n      dup4\n        /* \"@openzeppelin/contracts/utils/Address.sol\":5386:5398   */\n      dup8\n        /* \"@openzeppelin/contracts/utils/Address.sol\":5330:5356   */\n      tag_192\n        /* \"@openzeppelin/contracts/utils/Address.sol\":5330:5399   */\n      jump\t// in\n    tag_191:\n        /* \"@openzeppelin/contracts/utils/Address.sol\":5323:5399   */\n      swap8\n        /* \"@openzeppelin/contracts/utils/Address.sol\":4960:5406   */\n      swap7\n      pop\n      pop\n      pop\n      pop\n      pop\n      pop\n      pop\n      jump\t// out\n        /* \"@openzeppelin/contracts/utils/Address.sol\":7466:8094   */\n    tag_192:\n        /* \"@openzeppelin/contracts/utils/Address.sol\":7646:7658   */\n      0x60\n        /* \"@openzeppelin/contracts/utils/Address.sol\":7674:7681   */\n      dup4\n        /* \"@openzeppelin/contracts/utils/Address.sol\":7670:8088   */\n      iszero\n      tag_194\n      jumpi\n        /* \"@openzeppelin/contracts/utils/Address.sol\":7701:7711   */\n      dup3\n        /* \"@openzeppelin/contracts/utils/Address.sol\":7701:7718   */\n      mload\n        /* \"@openzeppelin/contracts/utils/Address.sol\":7722:7723   */\n      0x00\n        /* \"@openzeppelin/contracts/utils/Address.sol\":7701:7723   */\n      sub\n        /* \"@openzeppelin/contracts/utils/Address.sol\":7697:7983   */\n      tag_198\n      jumpi\n      sub(shl(0xa0, 0x01), 0x01)\n        /* \"@openzeppelin/contracts/utils/Address.sol\":1465:1484   */\n      dup6\n      and\n      extcodesize\n        /* \"@openzeppelin/contracts/utils/Address.sol\":7908:7968   */\n      tag_198\n      jumpi\n      mload(0x40)\n      shl(0xe5, 0x461bcd)\n      dup2\n      mstore\n        /* \"#utility.yul\":8255:8257   */\n      0x20\n        /* \"@openzeppelin/contracts/utils/Address.sol\":7908:7968   */\n      0x04\n      dup3\n      add\n        /* \"#utility.yul\":8237:8258   */\n      mstore\n        /* \"#utility.yul\":8294:8296   */\n      0x1d\n        /* \"#utility.yul\":8274:8292   */\n      0x24\n      dup3\n      add\n        /* \"#utility.yul\":8267:8297   */\n      mstore\n        /* \"#utility.yul\":8333:8364   */\n      0x416464726573733a2063616c6c20746f206e6f6e2d636f6e7472616374000000\n        /* \"#utility.yul\":8313:8331   */\n      0x44\n      dup3\n      add\n        /* \"#utility.yul\":8306:8365   */\n      mstore\n        /* \"#utility.yul\":8382:8400   */\n      0x64\n      add\n        /* \"@openzeppelin/contracts/utils/Address.sol\":7908:7968   */\n      tag_57\n        /* \"#utility.yul\":8053:8406   */\n      jump\n        /* \"@openzeppelin/contracts/utils/Address.sol\":7908:7968   */\n    tag_198:\n      pop\n        /* \"@openzeppelin/contracts/utils/Address.sol\":8003:8013   */\n      dup2\n        /* \"@openzeppelin/contracts/utils/Address.sol\":7996:8013   */\n      jump(tag_180)\n        /* \"@openzeppelin/contracts/utils/Address.sol\":7670:8088   */\n    tag_194:\n        /* \"@openzeppelin/contracts/utils/Address.sol\":8044:8077   */\n      tag_180\n        /* \"@openzeppelin/contracts/utils/Address.sol\":8052:8062   */\n      dup4\n        /* \"@openzeppelin/contracts/utils/Address.sol\":8064:8076   */\n      dup4\n        /* \"@openzeppelin/contracts/utils/Address.sol\":8775:8792   */\n      dup2\n      mload\n        /* \"@openzeppelin/contracts/utils/Address.sol\":8775:8796   */\n      iszero\n        /* \"@openzeppelin/contracts/utils/Address.sol\":8771:9150   */\n      tag_206\n      jumpi\n        /* \"@openzeppelin/contracts/utils/Address.sol\":9003:9013   */\n      dup2\n        /* \"@openzeppelin/contracts/utils/Address.sol\":8997:9014   */\n      mload\n        /* \"@openzeppelin/contracts/utils/Address.sol\":9059:9074   */\n      dup1\n        /* \"@openzeppelin/contracts/utils/Address.sol\":9046:9056   */\n      dup4\n        /* \"@openzeppelin/contracts/utils/Address.sol\":9042:9044   */\n      0x20\n        /* \"@openzeppelin/contracts/utils/Address.sol\":9038:9057   */\n      add\n        /* \"@openzeppelin/contracts/utils/Address.sol\":9031:9075   */\n      revert\n        /* \"@openzeppelin/contracts/utils/Address.sol\":8771:9150   */\n    tag_206:\n        /* \"@openzeppelin/contracts/utils/Address.sol\":9126:9138   */\n      dup1\n        /* \"@openzeppelin/contracts/utils/Address.sol\":9119:9139   */\n      mload(0x40)\n      shl(0xe5, 0x461bcd)\n      dup2\n      mstore\n      0x04\n      add\n      tag_57\n      swap2\n      swap1\n      tag_209\n      jump\t// in\n        /* \"#utility.yul\":14:194   */\n    tag_16:\n        /* \"#utility.yul\":73:79   */\n      0x00\n        /* \"#utility.yul\":126:128   */\n      0x20\n        /* \"#utility.yul\":114:123   */\n      dup3\n        /* \"#utility.yul\":105:112   */\n      dup5\n        /* \"#utility.yul\":101:124   */\n      sub\n        /* \"#utility.yul\":97:129   */\n      slt\n        /* \"#utility.yul\":94:146   */\n      iszero\n      tag_215\n      jumpi\n        /* \"#utility.yul\":142:143   */\n      0x00\n        /* \"#utility.yul\":139:140   */\n      dup1\n        /* \"#utility.yul\":132:144   */\n      revert\n        /* \"#utility.yul\":94:146   */\n    tag_215:\n      pop\n        /* \"#utility.yul\":165:188   */\n      calldataload\n      swap2\n        /* \"#utility.yul\":14:194   */\n      swap1\n      pop\n      jump\t// out\n        /* \"#utility.yul\":199:353   */\n    tag_210:\n      sub(shl(0xa0, 0x01), 0x01)\n        /* \"#utility.yul\":278:283   */\n      dup2\n        /* \"#utility.yul\":274:328   */\n      and\n        /* \"#utility.yul\":267:272   */\n      dup2\n        /* \"#utility.yul\":264:329   */\n      eq\n        /* \"#utility.yul\":254:347   */\n      tag_90\n      jumpi\n        /* \"#utility.yul\":343:344   */\n      0x00\n        /* \"#utility.yul\":340:341   */\n      dup1\n        /* \"#utility.yul\":333:345   */\n      revert\n        /* \"#utility.yul\":358:605   */\n    tag_22:\n        /* \"#utility.yul\":417:423   */\n      0x00\n        /* \"#utility.yul\":470:472   */\n      0x20\n        /* \"#utility.yul\":458:467   */\n      dup3\n        /* \"#utility.yul\":449:456   */\n      dup5\n        /* \"#utility.yul\":445:468   */\n      sub\n        /* \"#utility.yul\":441:473   */\n      slt\n        /* \"#utility.yul\":438:490   */\n      iszero\n      tag_219\n      jumpi\n        /* \"#utility.yul\":486:487   */\n      0x00\n        /* \"#utility.yul\":483:484   */\n      dup1\n        /* \"#utility.yul\":476:488   */\n      revert\n        /* \"#utility.yul\":438:490   */\n    tag_219:\n        /* \"#utility.yul\":525:534   */\n      dup2\n        /* \"#utility.yul\":512:535   */\n      calldataload\n        /* \"#utility.yul\":544:575   */\n      tag_151\n        /* \"#utility.yul\":569:574   */\n      dup2\n        /* \"#utility.yul\":544:575   */\n      tag_210\n      jump\t// in\n        /* \"#utility.yul\":610:1451   */\n    tag_25:\n        /* \"#utility.yul\":835:837   */\n      0x20\n        /* \"#utility.yul\":887:908   */\n      dup1\n      dup3\n      mstore\n        /* \"#utility.yul\":957:970   */\n      dup3\n      mload\n        /* \"#utility.yul\":860:878   */\n      dup3\n      dup3\n      add\n        /* \"#utility.yul\":979:1001   */\n      dup2\n      swap1\n      mstore\n        /* \"#utility.yul\":806:810   */\n      0x00\n      swap2\n        /* \"#utility.yul\":835:837   */\n      swap1\n        /* \"#utility.yul\":1020:1022   */\n      0x40\n      swap1\n        /* \"#utility.yul\":1038:1056   */\n      dup2\n      dup6\n      add\n      swap1\n        /* \"#utility.yul\":1079:1094   */\n      dup7\n      dup5\n      add\n        /* \"#utility.yul\":806:810   */\n      dup6\n        /* \"#utility.yul\":1122:1425   */\n    tag_222:\n        /* \"#utility.yul\":1136:1142   */\n      dup3\n        /* \"#utility.yul\":1133:1134   */\n      dup2\n        /* \"#utility.yul\":1130:1143   */\n      lt\n        /* \"#utility.yul\":1122:1425   */\n      iszero\n      tag_224\n      jumpi\n        /* \"#utility.yul\":1195:1208   */\n      dup2\n      mload\n        /* \"#utility.yul\":1237:1246   */\n      dup1\n      mload\n      sub(shl(0xa0, 0x01), 0x01)\n        /* \"#utility.yul\":1233:1291   */\n      and\n        /* \"#utility.yul\":1221:1292   */\n      dup6\n      mstore\n        /* \"#utility.yul\":1332:1343   */\n      dup7\n      add\n        /* \"#utility.yul\":1326:1344   */\n      mload\n        /* \"#utility.yul\":1312:1324   */\n      dup7\n      dup6\n      add\n        /* \"#utility.yul\":1305:1345   */\n      mstore\n        /* \"#utility.yul\":1365:1377   */\n      swap3\n      dup5\n      add\n      swap3\n        /* \"#utility.yul\":1400:1415   */\n      swap1\n      dup6\n      add\n      swap1\n        /* \"#utility.yul\":1158:1159   */\n      0x01\n        /* \"#utility.yul\":1151:1160   */\n      add\n        /* \"#utility.yul\":1122:1425   */\n      jump(tag_222)\n    tag_224:\n      pop\n        /* \"#utility.yul\":1442:1445   */\n      swap2\n      swap8\n        /* \"#utility.yul\":610:1451   */\n      swap7\n      pop\n      pop\n      pop\n      pop\n      pop\n      pop\n      pop\n      jump\t// out\n        /* \"#utility.yul\":3393:3520   */\n    tag_211:\n        /* \"#utility.yul\":3454:3464   */\n      0x4e487b71\n        /* \"#utility.yul\":3449:3452   */\n      0xe0\n        /* \"#utility.yul\":3445:3465   */\n      shl\n        /* \"#utility.yul\":3442:3443   */\n      0x00\n        /* \"#utility.yul\":3435:3466   */\n      mstore\n        /* \"#utility.yul\":3485:3489   */\n      0x11\n        /* \"#utility.yul\":3482:3483   */\n      0x04\n        /* \"#utility.yul\":3475:3490   */\n      mstore\n        /* \"#utility.yul\":3509:3513   */\n      0x24\n        /* \"#utility.yul\":3506:3507   */\n      0x00\n        /* \"#utility.yul\":3499:3514   */\n      revert\n        /* \"#utility.yul\":3525:3650   */\n    tag_65:\n        /* \"#utility.yul\":3590:3599   */\n      dup1\n      dup3\n      add\n        /* \"#utility.yul\":3611:3621   */\n      dup1\n      dup3\n      gt\n        /* \"#utility.yul\":3608:3644   */\n      iszero\n      tag_162\n      jumpi\n        /* \"#utility.yul\":3624:3642   */\n      tag_162\n      tag_211\n      jump\t// in\n        /* \"#utility.yul\":3655:3782   */\n    tag_71:\n        /* \"#utility.yul\":3716:3726   */\n      0x4e487b71\n        /* \"#utility.yul\":3711:3714   */\n      0xe0\n        /* \"#utility.yul\":3707:3727   */\n      shl\n        /* \"#utility.yul\":3704:3705   */\n      0x00\n        /* \"#utility.yul\":3697:3728   */\n      mstore\n        /* \"#utility.yul\":3747:3751   */\n      0x32\n        /* \"#utility.yul\":3744:3745   */\n      0x04\n        /* \"#utility.yul\":3737:3752   */\n      mstore\n        /* \"#utility.yul\":3771:3775   */\n      0x24\n        /* \"#utility.yul\":3768:3769   */\n      0x00\n        /* \"#utility.yul\":3761:3776   */\n      revert\n        /* \"#utility.yul\":3787:3922   */\n    tag_79:\n        /* \"#utility.yul\":3826:3829   */\n      0x00\n        /* \"#utility.yul\":3847:3864   */\n      0x01\n      dup3\n      add\n        /* \"#utility.yul\":3844:3887   */\n      tag_239\n      jumpi\n        /* \"#utility.yul\":3867:3885   */\n      tag_239\n      tag_211\n      jump\t// in\n    tag_239:\n      pop\n        /* \"#utility.yul\":3914:3915   */\n      0x01\n        /* \"#utility.yul\":3903:3916   */\n      add\n      swap1\n        /* \"#utility.yul\":3787:3922   */\n      jump\t// out\n        /* \"#utility.yul\":3927:4063   */\n    tag_84:\n        /* \"#utility.yul\":3966:3969   */\n      0x00\n        /* \"#utility.yul\":3994:3999   */\n      dup2\n        /* \"#utility.yul\":3984:4023   */\n      tag_242\n      jumpi\n        /* \"#utility.yul\":4003:4021   */\n      tag_242\n      tag_211\n      jump\t// in\n    tag_242:\n      pop\n      not(0x00)\n        /* \"#utility.yul\":4039:4057   */\n      add\n      swap1\n        /* \"#utility.yul\":3927:4063   */\n      jump\t// out\n        /* \"#utility.yul\":4828:4955   */\n    tag_104:\n        /* \"#utility.yul\":4889:4899   */\n      0x4e487b71\n        /* \"#utility.yul\":4884:4887   */\n      0xe0\n        /* \"#utility.yul\":4880:4900   */\n      shl\n        /* \"#utility.yul\":4877:4878   */\n      0x00\n        /* \"#utility.yul\":4870:4901   */\n      mstore\n        /* \"#utility.yul\":4920:4924   */\n      0x41\n        /* \"#utility.yul\":4917:4918   */\n      0x04\n        /* \"#utility.yul\":4910:4925   */\n      mstore\n        /* \"#utility.yul\":4944:4948   */\n      0x24\n        /* \"#utility.yul\":4941:4942   */\n      0x00\n        /* \"#utility.yul\":4934:4949   */\n      revert\n        /* \"#utility.yul\":4960:5211   */\n    tag_139:\n        /* \"#utility.yul\":5030:5036   */\n      0x00\n        /* \"#utility.yul\":5083:5085   */\n      0x20\n        /* \"#utility.yul\":5071:5080   */\n      dup3\n        /* \"#utility.yul\":5062:5069   */\n      dup5\n        /* \"#utility.yul\":5058:5081   */\n      sub\n        /* \"#utility.yul\":5054:5086   */\n      slt\n        /* \"#utility.yul\":5051:5103   */\n      iszero\n      tag_247\n      jumpi\n        /* \"#utility.yul\":5099:5100   */\n      0x00\n        /* \"#utility.yul\":5096:5097   */\n      dup1\n        /* \"#utility.yul\":5089:5101   */\n      revert\n        /* \"#utility.yul\":5051:5103   */\n    tag_247:\n        /* \"#utility.yul\":5131:5140   */\n      dup2\n        /* \"#utility.yul\":5125:5141   */\n      mload\n        /* \"#utility.yul\":5150:5181   */\n      tag_151\n        /* \"#utility.yul\":5175:5180   */\n      dup2\n        /* \"#utility.yul\":5150:5181   */\n      tag_210\n      jump\t// in\n        /* \"#utility.yul\":5576:5704   */\n    tag_158:\n        /* \"#utility.yul\":5643:5652   */\n      dup2\n      dup2\n      sub\n        /* \"#utility.yul\":5664:5675   */\n      dup2\n      dup2\n      gt\n        /* \"#utility.yul\":5661:5698   */\n      iszero\n      tag_162\n      jumpi\n        /* \"#utility.yul\":5678:5696   */\n      tag_162\n      tag_211\n      jump\t// in\n        /* \"#utility.yul\":5709:5877   */\n    tag_160:\n        /* \"#utility.yul\":5782:5791   */\n      dup1\n      dup3\n      mul\n        /* \"#utility.yul\":5813:5822   */\n      dup2\n      iszero\n        /* \"#utility.yul\":5830:5845   */\n      dup3\n      dup3\n      div\n        /* \"#utility.yul\":5824:5846   */\n      dup5\n      eq\n        /* \"#utility.yul\":5810:5847   */\n      or\n        /* \"#utility.yul\":5800:5871   */\n      tag_162\n      jumpi\n        /* \"#utility.yul\":5851:5869   */\n      tag_162\n      tag_211\n      jump\t// in\n        /* \"#utility.yul\":5882:6099   */\n    tag_163:\n        /* \"#utility.yul\":5922:5923   */\n      0x00\n        /* \"#utility.yul\":5948:5949   */\n      dup3\n        /* \"#utility.yul\":5938:6070   */\n      tag_257\n      jumpi\n        /* \"#utility.yul\":5992:6002   */\n      0x4e487b71\n        /* \"#utility.yul\":5987:5990   */\n      0xe0\n        /* \"#utility.yul\":5983:6003   */\n      shl\n        /* \"#utility.yul\":5980:5981   */\n      0x00\n        /* \"#utility.yul\":5973:6004   */\n      mstore\n        /* \"#utility.yul\":6027:6031   */\n      0x12\n        /* \"#utility.yul\":6024:6025   */\n      0x04\n        /* \"#utility.yul\":6017:6032   */\n      mstore\n        /* \"#utility.yul\":6055:6059   */\n      0x24\n        /* \"#utility.yul\":6052:6053   */\n      0x00\n        /* \"#utility.yul\":6045:6060   */\n      revert\n        /* \"#utility.yul\":5938:6070   */\n    tag_257:\n      pop\n        /* \"#utility.yul\":6084:6093   */\n      div\n      swap1\n        /* \"#utility.yul\":5882:6099   */\n      jump\t// out\n        /* \"#utility.yul\":6406:6683   */\n    tag_175:\n        /* \"#utility.yul\":6473:6479   */\n      0x00\n        /* \"#utility.yul\":6526:6528   */\n      0x20\n        /* \"#utility.yul\":6514:6523   */\n      dup3\n        /* \"#utility.yul\":6505:6512   */\n      dup5\n        /* \"#utility.yul\":6501:6524   */\n      sub\n        /* \"#utility.yul\":6497:6529   */\n      slt\n        /* \"#utility.yul\":6494:6546   */\n      iszero\n      tag_260\n      jumpi\n        /* \"#utility.yul\":6542:6543   */\n      0x00\n        /* \"#utility.yul\":6539:6540   */\n      dup1\n        /* \"#utility.yul\":6532:6544   */\n      revert\n        /* \"#utility.yul\":6494:6546   */\n    tag_260:\n        /* \"#utility.yul\":6574:6583   */\n      dup2\n        /* \"#utility.yul\":6568:6584   */\n      mload\n        /* \"#utility.yul\":6627:6632   */\n      dup1\n        /* \"#utility.yul\":6620:6633   */\n      iszero\n        /* \"#utility.yul\":6613:6634   */\n      iszero\n        /* \"#utility.yul\":6606:6611   */\n      dup2\n        /* \"#utility.yul\":6603:6635   */\n      eq\n        /* \"#utility.yul\":6593:6653   */\n      tag_151\n      jumpi\n        /* \"#utility.yul\":6649:6650   */\n      0x00\n        /* \"#utility.yul\":6646:6647   */\n      dup1\n        /* \"#utility.yul\":6639:6651   */\n      revert\n        /* \"#utility.yul\":7506:7756   */\n    tag_212:\n        /* \"#utility.yul\":7591:7592   */\n      0x00\n        /* \"#utility.yul\":7601:7714   */\n    tag_265:\n        /* \"#utility.yul\":7615:7621   */\n      dup4\n        /* \"#utility.yul\":7612:7613   */\n      dup2\n        /* \"#utility.yul\":7609:7622   */\n      lt\n        /* \"#utility.yul\":7601:7714   */\n      iszero\n      tag_267\n      jumpi\n        /* \"#utility.yul\":7691:7702   */\n      dup2\n      dup2\n      add\n        /* \"#utility.yul\":7685:7703   */\n      mload\n        /* \"#utility.yul\":7672:7683   */\n      dup4\n      dup3\n      add\n        /* \"#utility.yul\":7665:7704   */\n      mstore\n        /* \"#utility.yul\":7637:7639   */\n      0x20\n        /* \"#utility.yul\":7630:7640   */\n      add\n        /* \"#utility.yul\":7601:7714   */\n      jump(tag_265)\n    tag_267:\n      pop\n      pop\n        /* \"#utility.yul\":7748:7749   */\n      0x00\n        /* \"#utility.yul\":7730:7746   */\n      swap2\n      add\n        /* \"#utility.yul\":7723:7750   */\n      mstore\n        /* \"#utility.yul\":7506:7756   */\n      jump\t// out\n        /* \"#utility.yul\":7761:8048   */\n    tag_187:\n        /* \"#utility.yul\":7890:7893   */\n      0x00\n        /* \"#utility.yul\":7928:7934   */\n      dup3\n        /* \"#utility.yul\":7922:7935   */\n      mload\n        /* \"#utility.yul\":7944:8010   */\n      tag_269\n        /* \"#utility.yul\":8003:8009   */\n      dup2\n        /* \"#utility.yul\":7998:8001   */\n      dup5\n        /* \"#utility.yul\":7991:7995   */\n      0x20\n        /* \"#utility.yul\":7983:7989   */\n      dup8\n        /* \"#utility.yul\":7979:7996   */\n      add\n        /* \"#utility.yul\":7944:8010   */\n      tag_212\n      jump\t// in\n    tag_269:\n        /* \"#utility.yul\":8026:8042   */\n      swap2\n      swap1\n      swap2\n      add\n      swap3\n        /* \"#utility.yul\":7761:8048   */\n      swap2\n      pop\n      pop\n      jump\t// out\n        /* \"#utility.yul\":8411:8807   */\n    tag_209:\n        /* \"#utility.yul\":8560:8562   */\n      0x20\n        /* \"#utility.yul\":8549:8558   */\n      dup2\n        /* \"#utility.yul\":8542:8563   */\n      mstore\n        /* \"#utility.yul\":8523:8527   */\n      0x00\n        /* \"#utility.yul\":8592:8598   */\n      dup3\n        /* \"#utility.yul\":8586:8599   */\n      mload\n        /* \"#utility.yul\":8635:8641   */\n      dup1\n        /* \"#utility.yul\":8630:8632   */\n      0x20\n        /* \"#utility.yul\":8619:8628   */\n      dup5\n        /* \"#utility.yul\":8615:8633   */\n      add\n        /* \"#utility.yul\":8608:8642   */\n      mstore\n        /* \"#utility.yul\":8651:8730   */\n      tag_272\n        /* \"#utility.yul\":8723:8729   */\n      dup2\n        /* \"#utility.yul\":8718:8720   */\n      0x40\n        /* \"#utility.yul\":8707:8716   */\n      dup6\n        /* \"#utility.yul\":8703:8721   */\n      add\n        /* \"#utility.yul\":8698:8700   */\n      0x20\n        /* \"#utility.yul\":8690:8696   */\n      dup8\n        /* \"#utility.yul\":8686:8701   */\n      add\n        /* \"#utility.yul\":8651:8730   */\n      tag_212\n      jump\t// in\n    tag_272:\n        /* \"#utility.yul\":8791:8793   */\n      0x1f\n        /* \"#utility.yul\":8770:8785   */\n      add\n      not(0x1f)\n        /* \"#utility.yul\":8766:8795   */\n      and\n        /* \"#utility.yul\":8751:8796   */\n      swap2\n      swap1\n      swap2\n      add\n        /* \"#utility.yul\":8798:8800   */\n      0x40\n        /* \"#utility.yul\":8747:8801   */\n      add\n      swap3\n        /* \"#utility.yul\":8411:8807   */\n      swap2\n      pop\n      pop\n      jump\t// out\n\n    auxdata: 0xa26469706673582212203d373575fa6889cb4d518c54e1753be384d5be24b750e17cd5223c7c6db24b1164736f6c63430008110033\n}\n",
    "bytecode": {
      "linkReferences": {},
      "object": "60c06040526402540be40060015534801561001957600080fd5b506040516111613803806111618339810160408190526100389161006c565b60016000556001600160a01b0391821660a052166080526100a6565b6001600160a01b038116811461006957600080fd5b50565b6000806040838503121561007f57600080fd5b825161008a81610054565b602084015190925061009b81610054565b809150509250929050565b60805160a05161107b6100e66000396000818160f3015281816104750152818161083201526109150152600081816101b70152610593015261107b6000f3fe608060405234801561001057600080fd5b50600436106100a35760003560e01c80639168ae7211610076578063a694fc3a1161005b578063a694fc3a1461019f578063d1af0c7d146101b2578063f854a27f146101d957600080fd5b80639168ae721461012d578063940670451461017657600080fd5b80632e1a7d4d146100a8578063372500ab146100bd57806363c28db1146100c55780636588103b146100ee575b600080fd5b6100bb6100b6366004610e1f565b6101fa565b005b6100bb6104f6565b6100d86100d3366004610e4d565b6105c2565b6040516100e59190610e6a565b60405180910390f35b6101157f000000000000000000000000000000000000000000000000000000000000000081565b6040516001600160a01b0390911681526020016100e5565b61015b61013b366004610e4d565b600260208190526000918252604090912080549181015460039091015483565b604080519384526020840192909252908201526060016100e5565b610115610184366004610e1f565b6003602052600090815260409020546001600160a01b031681565b6100bb6101ad366004610e1f565b6107bc565b6101157f000000000000000000000000000000000000000000000000000000000000000081565b6101ec6101e7366004610e4d565b610a33565b6040519081526020016100e5565b610202610a6b565b336000908152600260205260409020546102635760405162461bcd60e51b815260206004820152601960248201527f596f752068617665206e6f20746f6b656e73207374616b65640000000000000060448201526064015b60405180910390fd5b6000818152600360205260409020546001600160a01b031633146102c95760405162461bcd60e51b815260206004820152601960248201527f596f7520646f6e2774206f776e207468697320746f6b656e2100000000000000604482015260640161025a565b60006102d433610ac4565b336000908152600260205260408120600301805492935083929091906102fb908490610ed8565b9091555060009050805b336000908152600260205260409020600101548110156103c05733600090815260026020526040902060010180548591908390811061034657610346610eeb565b9060005260206000209060020201600101541480156103a1575033600090815260026020526040812060010180548390811061038457610384610eeb565b60009182526020909120600290910201546001600160a01b031614155b156103ae578091506103c0565b806103b881610f01565b915050610305565b503360009081526002602052604081206001018054839081106103e5576103e5610eeb565b6000918252602080832060029283020180546001600160a01b0319166001600160a01b0395909516949094179093553382529091526040812080549161042a83610f1a565b90915550506000838152600360205260409081902080546001600160a01b0319169055516323b872dd60e01b8152306004820152336024820152604481018490526001600160a01b037f000000000000000000000000000000000000000000000000000000000000000016906323b872dd90606401600060405180830381600087803b1580156104b957600080fd5b505af11580156104cd573d6000803e3d6000fd5b505033600090815260026020819052604090912042910155506104f39250610b20915050565b50565b33600081815260026020526040812060030154909161051490610ac4565b61051e9190610ed8565b9050600081116105705760405162461bcd60e51b815260206004820152601c60248201527f596f752068617665206e6f207265776172647320746f20636c61696d00000000604482015260640161025a565b33600081815260026020819052604082204291810191909155600301556104f3907f00000000000000000000000000000000000000000000000000000000000000006001600160a01b03169083610b27565b6001600160a01b03811660009081526002602052604090205460609015610778576001600160a01b03821660009081526002602052604081205467ffffffffffffffff81111561061457610614610f31565b60405190808252806020026020018201604052801561065957816020015b60408051808201909152600080825260208201528152602001906001900390816106325790505b5090506000805b6001600160a01b03851660009081526002602052604090206001015481101561076f576001600160a01b03851660009081526002602052604081206001018054839081106106b0576106b0610eeb565b60009182526020909120600290910201546001600160a01b03161461075d576001600160a01b03851660009081526002602052604090206001018054829081106106fc576106fc610eeb565b60009182526020918290206040805180820190915260029092020180546001600160a01b031682526001015491810191909152835184908490811061074357610743610eeb565b6020026020010181905250818061075990610f01565b9250505b8061076781610f01565b915050610660565b50909392505050565b60408051600080825260208201909252906107b5565b604080518082019091526000808252602082015281526020019060019003908161078e5790505b5092915050565b6107c4610a6b565b33600090815260026020526040902054156108125760006107e433610ac4565b3360009081526002602052604081206003018054929350839290919061080b908490610ed8565b9091555050505b6040516331a9108f60e11b81526004810182905233906001600160a01b037f00000000000000000000000000000000000000000000000000000000000000001690636352211e90602401602060405180830381865afa158015610879573d6000803e3d6000fd5b505050506040513d601f19601f8201168201806040525081019061089d9190610f47565b6001600160a01b0316146108f35760405162461bcd60e51b815260206004820152601960248201527f596f7520646f6e2774206f776e207468697320746f6b656e2100000000000000604482015260640161025a565b6040516323b872dd60e01b8152336004820152306024820152604481018290527f00000000000000000000000000000000000000000000000000000000000000006001600160a01b0316906323b872dd90606401600060405180830381600087803b15801561096157600080fd5b505af1158015610975573d6000803e3d6000fd5b50506040805180820182523380825260208083018781526000838152600280845295812060018082018054808301825590845294832087519590980290970180546001600160a01b0319166001600160a01b03909516949094178455915192909501919091559083528054919450909250906109f083610f01565b909155505050600081815260036020908152604080832080546001600160a01b031916339081179091558352600291829052909120429101556104f36001600055565b6001600160a01b0381166000908152600260205260408120600301548190610a5a84610ac4565b610a649190610ed8565b9392505050565b600260005403610abd5760405162461bcd60e51b815260206004820152601f60248201527f5265656e7472616e637947756172643a207265656e7472616e742063616c6c00604482015260640161025a565b6002600055565b6001546001600160a01b03821660009081526002602081905260408220805491015491926402540be40092909190610afc9042610f64565b610b069190610f77565b610b109190610f77565b610b1a9190610f8e565b92915050565b6001600055565b604080516001600160a01b038416602482015260448082018490528251808303909101815260649091019091526020810180517bffffffffffffffffffffffffffffffffffffffffffffffffffffffff1663a9059cbb60e01b179052610b8e908490610b93565b505050565b6000610be8826040518060400160405280602081526020017f5361666545524332303a206c6f772d6c6576656c2063616c6c206661696c6564815250856001600160a01b0316610c789092919063ffffffff16565b805190915015610b8e5780806020019051810190610c069190610fb0565b610b8e5760405162461bcd60e51b815260206004820152602a60248201527f5361666545524332303a204552433230206f7065726174696f6e20646964206e60448201527f6f74207375636365656400000000000000000000000000000000000000000000606482015260840161025a565b6060610c878484600085610c8f565b949350505050565b606082471015610d075760405162461bcd60e51b815260206004820152602660248201527f416464726573733a20696e73756666696369656e742062616c616e636520666f60448201527f722063616c6c0000000000000000000000000000000000000000000000000000606482015260840161025a565b600080866001600160a01b03168587604051610d239190610ff6565b60006040518083038185875af1925050503d8060008114610d60576040519150601f19603f3d011682016040523d82523d6000602084013e610d65565b606091505b5091509150610d7687838387610d81565b979650505050505050565b60608315610df0578251600003610de9576001600160a01b0385163b610de95760405162461bcd60e51b815260206004820152601d60248201527f416464726573733a2063616c6c20746f206e6f6e2d636f6e7472616374000000604482015260640161025a565b5081610c87565b610c878383815115610e055781518083602001fd5b8060405162461bcd60e51b815260040161025a9190611012565b600060208284031215610e3157600080fd5b5035919050565b6001600160a01b03811681146104f357600080fd5b600060208284031215610e5f57600080fd5b8135610a6481610e38565b602080825282518282018190526000919060409081850190868401855b82811015610eb557815180516001600160a01b03168552860151868501529284019290850190600101610e87565b5091979650505050505050565b634e487b7160e01b600052601160045260246000fd5b80820180821115610b1a57610b1a610ec2565b634e487b7160e01b600052603260045260246000fd5b600060018201610f1357610f13610ec2565b5060010190565b600081610f2957610f29610ec2565b506000190190565b634e487b7160e01b600052604160045260246000fd5b600060208284031215610f5957600080fd5b8151610a6481610e38565b81810381811115610b1a57610b1a610ec2565b8082028115828204841417610b1a57610b1a610ec2565b600082610fab57634e487b7160e01b600052601260045260246000fd5b500490565b600060208284031215610fc257600080fd5b81518015158114610a6457600080fd5b60005b83811015610fed578181015183820152602001610fd5565b50506000910152565b60008251611008818460208701610fd2565b9190910192915050565b6020815260008251806020840152611031816040850160208701610fd2565b601f01601f1916919091016040019291505056fea26469706673582212203d373575fa6889cb4d518c54e1753be384d5be24b750e17cd5223c7c6db24b1164736f6c63430008110033",
      "opcodes": "PUSH1 0xC0 PUSH1 0x40 MSTORE PUSH5 0x2540BE400 PUSH1 0x1 SSTORE CALLVALUE DUP1 ISZERO PUSH2 0x19 JUMPI PUSH1 0x0 DUP1 REVERT JUMPDEST POP PUSH1 0x40 MLOAD PUSH2 0x1161 CODESIZE SUB DUP1 PUSH2 0x1161 DUP4 CODECOPY DUP2 ADD PUSH1 0x40 DUP2 SWAP1 MSTORE PUSH2 0x38 SWAP2 PUSH2 0x6C JUMP JUMPDEST PUSH1 0x1 PUSH1 0x0 SSTORE PUSH1 0x1 PUSH1 0x1 PUSH1 0xA0 SHL SUB SWAP2 DUP3 AND PUSH1 0xA0 MSTORE AND PUSH1 0x80 MSTORE PUSH2 0xA6 JUMP JUMPDEST PUSH1 0x1 PUSH1 0x1 PUSH1 0xA0 SHL SUB DUP2 AND DUP2 EQ PUSH2 0x69 JUMPI PUSH1 0x0 DUP1 REVERT JUMPDEST POP JUMP JUMPDEST PUSH1 0x0 DUP1 PUSH1 0x40 DUP4 DUP6 SUB SLT ISZERO PUSH2 0x7F JUMPI PUSH1 0x0 DUP1 REVERT JUMPDEST DUP3 MLOAD PUSH2 0x8A DUP2 PUSH2 0x54 JUMP JUMPDEST PUSH1 0x20 DUP5 ADD MLOAD SWAP1 SWAP3 POP PUSH2 0x9B DUP2 PUSH2 0x54 JUMP JUMPDEST DUP1 SWAP2 POP POP SWAP3 POP SWAP3 SWAP1 POP JUMP JUMPDEST PUSH1 0x80 MLOAD PUSH1 0xA0 MLOAD PUSH2 0x107B PUSH2 0xE6 PUSH1 0x0 CODECOPY PUSH1 0x0 DUP2 DUP2 PUSH1 0xF3 ADD MSTORE DUP2 DUP2 PUSH2 0x475 ADD MSTORE DUP2 DUP2 PUSH2 0x832 ADD MSTORE PUSH2 0x915 ADD MSTORE PUSH1 0x0 DUP2 DUP2 PUSH2 0x1B7 ADD MSTORE PUSH2 0x593 ADD MSTORE PUSH2 0x107B PUSH1 0x0 RETURN INVALID PUSH1 0x80 PUSH1 0x40 MSTORE CALLVALUE DUP1 ISZERO PUSH2 0x10 JUMPI PUSH1 0x0 DUP1 REVERT JUMPDEST POP PUSH1 0x4 CALLDATASIZE LT PUSH2 0xA3 JUMPI PUSH1 0x0 CALLDATALOAD PUSH1 0xE0 SHR DUP1 PUSH4 0x9168AE72 GT PUSH2 0x76 JUMPI DUP1 PUSH4 0xA694FC3A GT PUSH2 0x5B JUMPI DUP1 PUSH4 0xA694FC3A EQ PUSH2 0x19F JUMPI DUP1 PUSH4 0xD1AF0C7D EQ PUSH2 0x1B2 JUMPI DUP1 PUSH4 0xF854A27F EQ PUSH2 0x1D9 JUMPI PUSH1 0x0 DUP1 REVERT JUMPDEST DUP1 PUSH4 0x9168AE72 EQ PUSH2 0x12D JUMPI DUP1 PUSH4 0x94067045 EQ PUSH2 0x176 JUMPI PUSH1 0x0 DUP1 REVERT JUMPDEST DUP1 PUSH4 0x2E1A7D4D EQ PUSH2 0xA8 JUMPI DUP1 PUSH4 0x372500AB EQ PUSH2 0xBD JUMPI DUP1 PUSH4 0x63C28DB1 EQ PUSH2 0xC5 JUMPI DUP1 PUSH4 0x6588103B EQ PUSH2 0xEE JUMPI JUMPDEST PUSH1 0x0 DUP1 REVERT JUMPDEST PUSH2 0xBB PUSH2 0xB6 CALLDATASIZE PUSH1 0x4 PUSH2 0xE1F JUMP JUMPDEST PUSH2 0x1FA JUMP JUMPDEST STOP JUMPDEST PUSH2 0xBB PUSH2 0x4F6 JUMP JUMPDEST PUSH2 0xD8 PUSH2 0xD3 CALLDATASIZE PUSH1 0x4 PUSH2 0xE4D JUMP JUMPDEST PUSH2 0x5C2 JUMP JUMPDEST PUSH1 0x40 MLOAD PUSH2 0xE5 SWAP2 SWAP1 PUSH2 0xE6A JUMP JUMPDEST PUSH1 0x40 MLOAD DUP1 SWAP2 SUB SWAP1 RETURN JUMPDEST PUSH2 0x115 PUSH32 0x0 DUP2 JUMP JUMPDEST PUSH1 0x40 MLOAD PUSH1 0x1 PUSH1 0x1 PUSH1 0xA0 SHL SUB SWAP1 SWAP2 AND DUP2 MSTORE PUSH1 0x20 ADD PUSH2 0xE5 JUMP JUMPDEST PUSH2 0x15B PUSH2 0x13B CALLDATASIZE PUSH1 0x4 PUSH2 0xE4D JUMP JUMPDEST PUSH1 0x2 PUSH1 0x20 DUP2 SWAP1 MSTORE PUSH1 0x0 SWAP2 DUP3 MSTORE PUSH1 0x40 SWAP1 SWAP2 KECCAK256 DUP1 SLOAD SWAP2 DUP2 ADD SLOAD PUSH1 0x3 SWAP1 SWAP2 ADD SLOAD DUP4 JUMP JUMPDEST PUSH1 0x40 DUP1 MLOAD SWAP4 DUP5 MSTORE PUSH1 0x20 DUP5 ADD SWAP3 SWAP1 SWAP3 MSTORE SWAP1 DUP3 ADD MSTORE PUSH1 0x60 ADD PUSH2 0xE5 JUMP JUMPDEST PUSH2 0x115 PUSH2 0x184 CALLDATASIZE PUSH1 0x4 PUSH2 0xE1F JUMP JUMPDEST PUSH1 0x3 PUSH1 0x20 MSTORE PUSH1 0x0 SWAP1 DUP2 MSTORE PUSH1 0x40 SWAP1 KECCAK256 SLOAD PUSH1 0x1 PUSH1 0x1 PUSH1 0xA0 SHL SUB AND DUP2 JUMP JUMPDEST PUSH2 0xBB PUSH2 0x1AD CALLDATASIZE PUSH1 0x4 PUSH2 0xE1F JUMP JUMPDEST PUSH2 0x7BC JUMP JUMPDEST PUSH2 0x115 PUSH32 0x0 DUP2 JUMP JUMPDEST PUSH2 0x1EC PUSH2 0x1E7 CALLDATASIZE PUSH1 0x4 PUSH2 0xE4D JUMP JUMPDEST PUSH2 0xA33 JUMP JUMPDEST PUSH1 0x40 MLOAD SWAP1 DUP2 MSTORE PUSH1 0x20 ADD PUSH2 0xE5 JUMP JUMPDEST PUSH2 0x202 PUSH2 0xA6B JUMP JUMPDEST CALLER PUSH1 0x0 SWAP1 DUP2 MSTORE PUSH1 0x2 PUSH1 0x20 MSTORE PUSH1 0x40 SWAP1 KECCAK256 SLOAD PUSH2 0x263 JUMPI PUSH1 0x40 MLOAD PUSH3 0x461BCD PUSH1 0xE5 SHL DUP2 MSTORE PUSH1 0x20 PUSH1 0x4 DUP3 ADD MSTORE PUSH1 0x19 PUSH1 0x24 DUP3 ADD MSTORE PUSH32 0x596F752068617665206E6F20746F6B656E73207374616B656400000000000000 PUSH1 0x44 DUP3 ADD MSTORE PUSH1 0x64 ADD JUMPDEST PUSH1 0x40 MLOAD DUP1 SWAP2 SUB SWAP1 REVERT JUMPDEST PUSH1 0x0 DUP2 DUP2 MSTORE PUSH1 0x3 PUSH1 0x20 MSTORE PUSH1 0x40 SWAP1 KECCAK256 SLOAD PUSH1 0x1 PUSH1 0x1 PUSH1 0xA0 SHL SUB AND CALLER EQ PUSH2 0x2C9 JUMPI PUSH1 0x40 MLOAD PUSH3 0x461BCD PUSH1 0xE5 SHL DUP2 MSTORE PUSH1 0x20 PUSH1 0x4 DUP3 ADD MSTORE PUSH1 0x19 PUSH1 0x24 DUP3 ADD MSTORE PUSH32 0x596F7520646F6E2774206F776E207468697320746F6B656E2100000000000000 PUSH1 0x44 DUP3 ADD MSTORE PUSH1 0x64 ADD PUSH2 0x25A JUMP JUMPDEST PUSH1 0x0 PUSH2 0x2D4 CALLER PUSH2 0xAC4 JUMP JUMPDEST CALLER PUSH1 0x0 SWAP1 DUP2 MSTORE PUSH1 0x2 PUSH1 0x20 MSTORE PUSH1 0x40 DUP2 KECCAK256 PUSH1 0x3 ADD DUP1 SLOAD SWAP3 SWAP4 POP DUP4 SWAP3 SWAP1 SWAP2 SWAP1 PUSH2 0x2FB SWAP1 DUP5 SWAP1 PUSH2 0xED8 JUMP JUMPDEST SWAP1 SWAP2 SSTORE POP PUSH1 0x0 SWAP1 POP DUP1 JUMPDEST CALLER PUSH1 0x0 SWAP1 DUP2 MSTORE PUSH1 0x2 PUSH1 0x20 MSTORE PUSH1 0x40 SWAP1 KECCAK256 PUSH1 0x1 ADD SLOAD DUP2 LT ISZERO PUSH2 0x3C0 JUMPI CALLER PUSH1 0x0 SWAP1 DUP2 MSTORE PUSH1 0x2 PUSH1 0x20 MSTORE PUSH1 0x40 SWAP1 KECCAK256 PUSH1 0x1 ADD DUP1 SLOAD DUP6 SWAP2 SWAP1 DUP4 SWAP1 DUP2 LT PUSH2 0x346 JUMPI PUSH2 0x346 PUSH2 0xEEB JUMP JUMPDEST SWAP1 PUSH1 0x0 MSTORE PUSH1 0x20 PUSH1 0x0 KECCAK256 SWAP1 PUSH1 0x2 MUL ADD PUSH1 0x1 ADD SLOAD EQ DUP1 ISZERO PUSH2 0x3A1 JUMPI POP CALLER PUSH1 0x0 SWAP1 DUP2 MSTORE PUSH1 0x2 PUSH1 0x20 MSTORE PUSH1 0x40 DUP2 KECCAK256 PUSH1 0x1 ADD DUP1 SLOAD DUP4 SWAP1 DUP2 LT PUSH2 0x384 JUMPI PUSH2 0x384 PUSH2 0xEEB JUMP JUMPDEST PUSH1 0x0 SWAP2 DUP3 MSTORE PUSH1 0x20 SWAP1 SWAP2 KECCAK256 PUSH1 0x2 SWAP1 SWAP2 MUL ADD SLOAD PUSH1 0x1 PUSH1 0x1 PUSH1 0xA0 SHL SUB AND EQ ISZERO JUMPDEST ISZERO PUSH2 0x3AE JUMPI DUP1 SWAP2 POP PUSH2 0x3C0 JUMP JUMPDEST DUP1 PUSH2 0x3B8 DUP2 PUSH2 0xF01 JUMP JUMPDEST SWAP2 POP POP PUSH2 0x305 JUMP JUMPDEST POP CALLER PUSH1 0x0 SWAP1 DUP2 MSTORE PUSH1 0x2 PUSH1 0x20 MSTORE PUSH1 0x40 DUP2 KECCAK256 PUSH1 0x1 ADD DUP1 SLOAD DUP4 SWAP1 DUP2 LT PUSH2 0x3E5 JUMPI PUSH2 0x3E5 PUSH2 0xEEB JUMP JUMPDEST PUSH1 0x0 SWAP2 DUP3 MSTORE PUSH1 0x20 DUP1 DUP4 KECCAK256 PUSH1 0x2 SWAP3 DUP4 MUL ADD DUP1 SLOAD PUSH1 0x1 PUSH1 0x1 PUSH1 0xA0 SHL SUB NOT AND PUSH1 0x1 PUSH1 0x1 PUSH1 0xA0 SHL SUB SWAP6 SWAP1 SWAP6 AND SWAP5 SWAP1 SWAP5 OR SWAP1 SWAP4 SSTORE CALLER DUP3 MSTORE SWAP1 SWAP2 MSTORE PUSH1 0x40 DUP2 KECCAK256 DUP1 SLOAD SWAP2 PUSH2 0x42A DUP4 PUSH2 0xF1A JUMP JUMPDEST SWAP1 SWAP2 SSTORE POP POP PUSH1 0x0 DUP4 DUP2 MSTORE PUSH1 0x3 PUSH1 0x20 MSTORE PUSH1 0x40 SWAP1 DUP2 SWAP1 KECCAK256 DUP1 SLOAD PUSH1 0x1 PUSH1 0x1 PUSH1 0xA0 SHL SUB NOT AND SWAP1 SSTORE MLOAD PUSH4 0x23B872DD PUSH1 0xE0 SHL DUP2 MSTORE ADDRESS PUSH1 0x4 DUP3 ADD MSTORE CALLER PUSH1 0x24 DUP3 ADD MSTORE PUSH1 0x44 DUP2 ADD DUP5 SWAP1 MSTORE PUSH1 0x1 PUSH1 0x1 PUSH1 0xA0 SHL SUB PUSH32 0x0 AND SWAP1 PUSH4 0x23B872DD SWAP1 PUSH1 0x64 ADD PUSH1 0x0 PUSH1 0x40 MLOAD DUP1 DUP4 SUB DUP2 PUSH1 0x0 DUP8 DUP1 EXTCODESIZE ISZERO DUP1 ISZERO PUSH2 0x4B9 JUMPI PUSH1 0x0 DUP1 REVERT JUMPDEST POP GAS CALL ISZERO DUP1 ISZERO PUSH2 0x4CD JUMPI RETURNDATASIZE PUSH1 0x0 DUP1 RETURNDATACOPY RETURNDATASIZE PUSH1 0x0 REVERT JUMPDEST POP POP CALLER PUSH1 0x0 SWAP1 DUP2 MSTORE PUSH1 0x2 PUSH1 0x20 DUP2 SWAP1 MSTORE PUSH1 0x40 SWAP1 SWAP2 KECCAK256 TIMESTAMP SWAP2 ADD SSTORE POP PUSH2 0x4F3 SWAP3 POP PUSH2 0xB20 SWAP2 POP POP JUMP JUMPDEST POP JUMP JUMPDEST CALLER PUSH1 0x0 DUP2 DUP2 MSTORE PUSH1 0x2 PUSH1 0x20 MSTORE PUSH1 0x40 DUP2 KECCAK256 PUSH1 0x3 ADD SLOAD SWAP1 SWAP2 PUSH2 0x514 SWAP1 PUSH2 0xAC4 JUMP JUMPDEST PUSH2 0x51E SWAP2 SWAP1 PUSH2 0xED8 JUMP JUMPDEST SWAP1 POP PUSH1 0x0 DUP2 GT PUSH2 0x570 JUMPI PUSH1 0x40 MLOAD PUSH3 0x461BCD PUSH1 0xE5 SHL DUP2 MSTORE PUSH1 0x20 PUSH1 0x4 DUP3 ADD MSTORE PUSH1 0x1C PUSH1 0x24 DUP3 ADD MSTORE PUSH32 0x596F752068617665206E6F207265776172647320746F20636C61696D00000000 PUSH1 0x44 DUP3 ADD MSTORE PUSH1 0x64 ADD PUSH2 0x25A JUMP JUMPDEST CALLER PUSH1 0x0 DUP2 DUP2 MSTORE PUSH1 0x2 PUSH1 0x20 DUP2 SWAP1 MSTORE PUSH1 0x40 DUP3 KECCAK256 TIMESTAMP SWAP2 DUP2 ADD SWAP2 SWAP1 SWAP2 SSTORE PUSH1 0x3 ADD SSTORE PUSH2 0x4F3 SWAP1 PUSH32 0x0 PUSH1 0x1 PUSH1 0x1 PUSH1 0xA0 SHL SUB AND SWAP1 DUP4 PUSH2 0xB27 JUMP JUMPDEST PUSH1 0x1 PUSH1 0x1 PUSH1 0xA0 SHL SUB DUP2 AND PUSH1 0x0 SWAP1 DUP2 MSTORE PUSH1 0x2 PUSH1 0x20 MSTORE PUSH1 0x40 SWAP1 KECCAK256 SLOAD PUSH1 0x60 SWAP1 ISZERO PUSH2 0x778 JUMPI PUSH1 0x1 PUSH1 0x1 PUSH1 0xA0 SHL SUB DUP3 AND PUSH1 0x0 SWAP1 DUP2 MSTORE PUSH1 0x2 PUSH1 0x20 MSTORE PUSH1 0x40 DUP2 KECCAK256 SLOAD PUSH8 0xFFFFFFFFFFFFFFFF DUP2 GT ISZERO PUSH2 0x614 JUMPI PUSH2 0x614 PUSH2 0xF31 JUMP JUMPDEST PUSH1 0x40 MLOAD SWAP1 DUP1 DUP3 MSTORE DUP1 PUSH1 0x20 MUL PUSH1 0x20 ADD DUP3 ADD PUSH1 0x40 MSTORE DUP1 ISZERO PUSH2 0x659 JUMPI DUP2 PUSH1 0x20 ADD JUMPDEST PUSH1 0x40 DUP1 MLOAD DUP1 DUP3 ADD SWAP1 SWAP2 MSTORE PUSH1 0x0 DUP1 DUP3 MSTORE PUSH1 0x20 DUP3 ADD MSTORE DUP2 MSTORE PUSH1 0x20 ADD SWAP1 PUSH1 0x1 SWAP1 SUB SWAP1 DUP2 PUSH2 0x632 JUMPI SWAP1 POP JUMPDEST POP SWAP1 POP PUSH1 0x0 DUP1 JUMPDEST PUSH1 0x1 PUSH1 0x1 PUSH1 0xA0 SHL SUB DUP6 AND PUSH1 0x0 SWAP1 DUP2 MSTORE PUSH1 0x2 PUSH1 0x20 MSTORE PUSH1 0x40 SWAP1 KECCAK256 PUSH1 0x1 ADD SLOAD DUP2 LT ISZERO PUSH2 0x76F JUMPI PUSH1 0x1 PUSH1 0x1 PUSH1 0xA0 SHL SUB DUP6 AND PUSH1 0x0 SWAP1 DUP2 MSTORE PUSH1 0x2 PUSH1 0x20 MSTORE PUSH1 0x40 DUP2 KECCAK256 PUSH1 0x1 ADD DUP1 SLOAD DUP4 SWAP1 DUP2 LT PUSH2 0x6B0 JUMPI PUSH2 0x6B0 PUSH2 0xEEB JUMP JUMPDEST PUSH1 0x0 SWAP2 DUP3 MSTORE PUSH1 0x20 SWAP1 SWAP2 KECCAK256 PUSH1 0x2 SWAP1 SWAP2 MUL ADD SLOAD PUSH1 0x1 PUSH1 0x1 PUSH1 0xA0 SHL SUB AND EQ PUSH2 0x75D JUMPI PUSH1 0x1 PUSH1 0x1 PUSH1 0xA0 SHL SUB DUP6 AND PUSH1 0x0 SWAP1 DUP2 MSTORE PUSH1 0x2 PUSH1 0x20 MSTORE PUSH1 0x40 SWAP1 KECCAK256 PUSH1 0x1 ADD DUP1 SLOAD DUP3 SWAP1 DUP2 LT PUSH2 0x6FC JUMPI PUSH2 0x6FC PUSH2 0xEEB JUMP JUMPDEST PUSH1 0x0 SWAP2 DUP3 MSTORE PUSH1 0x20 SWAP2 DUP3 SWAP1 KECCAK256 PUSH1 0x40 DUP1 MLOAD DUP1 DUP3 ADD SWAP1 SWAP2 MSTORE PUSH1 0x2 SWAP1 SWAP3 MUL ADD DUP1 SLOAD PUSH1 0x1 PUSH1 0x1 PUSH1 0xA0 SHL SUB AND DUP3 MSTORE PUSH1 0x1 ADD SLOAD SWAP2 DUP2 ADD SWAP2 SWAP1 SWAP2 MSTORE DUP4 MLOAD DUP5 SWAP1 DUP5 SWAP1 DUP2 LT PUSH2 0x743 JUMPI PUSH2 0x743 PUSH2 0xEEB JUMP JUMPDEST PUSH1 0x20 MUL PUSH1 0x20 ADD ADD DUP2 SWAP1 MSTORE POP DUP2 DUP1 PUSH2 0x759 SWAP1 PUSH2 0xF01 JUMP JUMPDEST SWAP3 POP POP JUMPDEST DUP1 PUSH2 0x767 DUP2 PUSH2 0xF01 JUMP JUMPDEST SWAP2 POP POP PUSH2 0x660 JUMP JUMPDEST POP SWAP1 SWAP4 SWAP3 POP POP POP JUMP JUMPDEST PUSH1 0x40 DUP1 MLOAD PUSH1 0x0 DUP1 DUP3 MSTORE PUSH1 0x20 DUP3 ADD SWAP1 SWAP3 MSTORE SWAP1 PUSH2 0x7B5 JUMP JUMPDEST PUSH1 0x40 DUP1 MLOAD DUP1 DUP3 ADD SWAP1 SWAP2 MSTORE PUSH1 0x0 DUP1 DUP3 MSTORE PUSH1 0x20 DUP3 ADD MSTORE DUP2 MSTORE PUSH1 0x20 ADD SWAP1 PUSH1 0x1 SWAP1 SUB SWAP1 DUP2 PUSH2 0x78E JUMPI SWAP1 POP JUMPDEST POP SWAP3 SWAP2 POP POP JUMP JUMPDEST PUSH2 0x7C4 PUSH2 0xA6B JUMP JUMPDEST CALLER PUSH1 0x0 SWAP1 DUP2 MSTORE PUSH1 0x2 PUSH1 0x20 MSTORE PUSH1 0x40 SWAP1 KECCAK256 SLOAD ISZERO PUSH2 0x812 JUMPI PUSH1 0x0 PUSH2 0x7E4 CALLER PUSH2 0xAC4 JUMP JUMPDEST CALLER PUSH1 0x0 SWAP1 DUP2 MSTORE PUSH1 0x2 PUSH1 0x20 MSTORE PUSH1 0x40 DUP2 KECCAK256 PUSH1 0x3 ADD DUP1 SLOAD SWAP3 SWAP4 POP DUP4 SWAP3 SWAP1 SWAP2 SWAP1 PUSH2 0x80B SWAP1 DUP5 SWAP1 PUSH2 0xED8 JUMP JUMPDEST SWAP1 SWAP2 SSTORE POP POP POP JUMPDEST PUSH1 0x40 MLOAD PUSH4 0x31A9108F PUSH1 0xE1 SHL DUP2 MSTORE PUSH1 0x4 DUP2 ADD DUP3 SWAP1 MSTORE CALLER SWAP1 PUSH1 0x1 PUSH1 0x1 PUSH1 0xA0 SHL SUB PUSH32 0x0 AND SWAP1 PUSH4 0x6352211E SWAP1 PUSH1 0x24 ADD PUSH1 0x20 PUSH1 0x40 MLOAD DUP1 DUP4 SUB DUP2 DUP7 GAS STATICCALL ISZERO DUP1 ISZERO PUSH2 0x879 JUMPI RETURNDATASIZE PUSH1 0x0 DUP1 RETURNDATACOPY RETURNDATASIZE PUSH1 0x0 REVERT JUMPDEST POP POP POP POP PUSH1 0x40 MLOAD RETURNDATASIZE PUSH1 0x1F NOT PUSH1 0x1F DUP3 ADD AND DUP3 ADD DUP1 PUSH1 0x40 MSTORE POP DUP2 ADD SWAP1 PUSH2 0x89D SWAP2 SWAP1 PUSH2 0xF47 JUMP JUMPDEST PUSH1 0x1 PUSH1 0x1 PUSH1 0xA0 SHL SUB AND EQ PUSH2 0x8F3 JUMPI PUSH1 0x40 MLOAD PUSH3 0x461BCD PUSH1 0xE5 SHL DUP2 MSTORE PUSH1 0x20 PUSH1 0x4 DUP3 ADD MSTORE PUSH1 0x19 PUSH1 0x24 DUP3 ADD MSTORE PUSH32 0x596F7520646F6E2774206F776E207468697320746F6B656E2100000000000000 PUSH1 0x44 DUP3 ADD MSTORE PUSH1 0x64 ADD PUSH2 0x25A JUMP JUMPDEST PUSH1 0x40 MLOAD PUSH4 0x23B872DD PUSH1 0xE0 SHL DUP2 MSTORE CALLER PUSH1 0x4 DUP3 ADD MSTORE ADDRESS PUSH1 0x24 DUP3 ADD MSTORE PUSH1 0x44 DUP2 ADD DUP3 SWAP1 MSTORE PUSH32 0x0 PUSH1 0x1 PUSH1 0x1 PUSH1 0xA0 SHL SUB AND SWAP1 PUSH4 0x23B872DD SWAP1 PUSH1 0x64 ADD PUSH1 0x0 PUSH1 0x40 MLOAD DUP1 DUP4 SUB DUP2 PUSH1 0x0 DUP8 DUP1 EXTCODESIZE ISZERO DUP1 ISZERO PUSH2 0x961 JUMPI PUSH1 0x0 DUP1 REVERT JUMPDEST POP GAS CALL ISZERO DUP1 ISZERO PUSH2 0x975 JUMPI RETURNDATASIZE PUSH1 0x0 DUP1 RETURNDATACOPY RETURNDATASIZE PUSH1 0x0 REVERT JUMPDEST POP POP PUSH1 0x40 DUP1 MLOAD DUP1 DUP3 ADD DUP3 MSTORE CALLER DUP1 DUP3 MSTORE PUSH1 0x20 DUP1 DUP4 ADD DUP8 DUP2 MSTORE PUSH1 0x0 DUP4 DUP2 MSTORE PUSH1 0x2 DUP1 DUP5 MSTORE SWAP6 DUP2 KECCAK256 PUSH1 0x1 DUP1 DUP3 ADD DUP1 SLOAD DUP1 DUP4 ADD DUP3 SSTORE SWAP1 DUP5 MSTORE SWAP5 DUP4 KECCAK256 DUP8 MLOAD SWAP6 SWAP1 SWAP9 MUL SWAP1 SWAP8 ADD DUP1 SLOAD PUSH1 0x1 PUSH1 0x1 PUSH1 0xA0 SHL SUB NOT AND PUSH1 0x1 PUSH1 0x1 PUSH1 0xA0 SHL SUB SWAP1 SWAP6 AND SWAP5 SWAP1 SWAP5 OR DUP5 SSTORE SWAP2 MLOAD SWAP3 SWAP1 SWAP6 ADD SWAP2 SWAP1 SWAP2 SSTORE SWAP1 DUP4 MSTORE DUP1 SLOAD SWAP2 SWAP5 POP SWAP1 SWAP3 POP SWAP1 PUSH2 0x9F0 DUP4 PUSH2 0xF01 JUMP JUMPDEST SWAP1 SWAP2 SSTORE POP POP POP PUSH1 0x0 DUP2 DUP2 MSTORE PUSH1 0x3 PUSH1 0x20 SWAP1 DUP2 MSTORE PUSH1 0x40 DUP1 DUP4 KECCAK256 DUP1 SLOAD PUSH1 0x1 PUSH1 0x1 PUSH1 0xA0 SHL SUB NOT AND CALLER SWAP1 DUP2 OR SWAP1 SWAP2 SSTORE DUP4 MSTORE PUSH1 0x2 SWAP2 DUP3 SWAP1 MSTORE SWAP1 SWAP2 KECCAK256 TIMESTAMP SWAP2 ADD SSTORE PUSH2 0x4F3 PUSH1 0x1 PUSH1 0x0 SSTORE JUMP JUMPDEST PUSH1 0x1 PUSH1 0x1 PUSH1 0xA0 SHL SUB DUP2 AND PUSH1 0x0 SWAP1 DUP2 MSTORE PUSH1 0x2 PUSH1 0x20 MSTORE PUSH1 0x40 DUP2 KECCAK256 PUSH1 0x3 ADD SLOAD DUP2 SWAP1 PUSH2 0xA5A DUP5 PUSH2 0xAC4 JUMP JUMPDEST PUSH2 0xA64 SWAP2 SWAP1 PUSH2 0xED8 JUMP JUMPDEST SWAP4 SWAP3 POP POP POP JUMP JUMPDEST PUSH1 0x2 PUSH1 0x0 SLOAD SUB PUSH2 0xABD JUMPI PUSH1 0x40 MLOAD PUSH3 0x461BCD PUSH1 0xE5 SHL DUP2 MSTORE PUSH1 0x20 PUSH1 0x4 DUP3 ADD MSTORE PUSH1 0x1F PUSH1 0x24 DUP3 ADD MSTORE PUSH32 0x5265656E7472616E637947756172643A207265656E7472616E742063616C6C00 PUSH1 0x44 DUP3 ADD MSTORE PUSH1 0x64 ADD PUSH2 0x25A JUMP JUMPDEST PUSH1 0x2 PUSH1 0x0 SSTORE JUMP JUMPDEST PUSH1 0x1 SLOAD PUSH1 0x1 PUSH1 0x1 PUSH1 0xA0 SHL SUB DUP3 AND PUSH1 0x0 SWAP1 DUP2 MSTORE PUSH1 0x2 PUSH1 0x20 DUP2 SWAP1 MSTORE PUSH1 0x40 DUP3 KECCAK256 DUP1 SLOAD SWAP2 ADD SLOAD SWAP2 SWAP3 PUSH5 0x2540BE400 SWAP3 SWAP1 SWAP2 SWAP1 PUSH2 0xAFC SWAP1 TIMESTAMP PUSH2 0xF64 JUMP JUMPDEST PUSH2 0xB06 SWAP2 SWAP1 PUSH2 0xF77 JUMP JUMPDEST PUSH2 0xB10 SWAP2 SWAP1 PUSH2 0xF77 JUMP JUMPDEST PUSH2 0xB1A SWAP2 SWAP1 PUSH2 0xF8E JUMP JUMPDEST SWAP3 SWAP2 POP POP JUMP JUMPDEST PUSH1 0x1 PUSH1 0x0 SSTORE JUMP JUMPDEST PUSH1 0x40 DUP1 MLOAD PUSH1 0x1 PUSH1 0x1 PUSH1 0xA0 SHL SUB DUP5 AND PUSH1 0x24 DUP3 ADD MSTORE PUSH1 0x44 DUP1 DUP3 ADD DUP5 SWAP1 MSTORE DUP3 MLOAD DUP1 DUP4 SUB SWAP1 SWAP2 ADD DUP2 MSTORE PUSH1 0x64 SWAP1 SWAP2 ADD SWAP1 SWAP2 MSTORE PUSH1 0x20 DUP2 ADD DUP1 MLOAD PUSH28 0xFFFFFFFFFFFFFFFFFFFFFFFFFFFFFFFFFFFFFFFFFFFFFFFFFFFFFFFF AND PUSH4 0xA9059CBB PUSH1 0xE0 SHL OR SWAP1 MSTORE PUSH2 0xB8E SWAP1 DUP5 SWAP1 PUSH2 0xB93 JUMP JUMPDEST POP POP POP JUMP JUMPDEST PUSH1 0x0 PUSH2 0xBE8 DUP3 PUSH1 0x40 MLOAD DUP1 PUSH1 0x40 ADD PUSH1 0x40 MSTORE DUP1 PUSH1 0x20 DUP2 MSTORE PUSH1 0x20 ADD PUSH32 0x5361666545524332303A206C6F772D6C6576656C2063616C6C206661696C6564 DUP2 MSTORE POP DUP6 PUSH1 0x1 PUSH1 0x1 PUSH1 0xA0 SHL SUB AND PUSH2 0xC78 SWAP1 SWAP3 SWAP2 SWAP1 PUSH4 0xFFFFFFFF AND JUMP JUMPDEST DUP1 MLOAD SWAP1 SWAP2 POP ISZERO PUSH2 0xB8E JUMPI DUP1 DUP1 PUSH1 0x20 ADD SWAP1 MLOAD DUP2 ADD SWAP1 PUSH2 0xC06 SWAP2 SWAP1 PUSH2 0xFB0 JUMP JUMPDEST PUSH2 0xB8E JUMPI PUSH1 0x40 MLOAD PUSH3 0x461BCD PUSH1 0xE5 SHL DUP2 MSTORE PUSH1 0x20 PUSH1 0x4 DUP3 ADD MSTORE PUSH1 0x2A PUSH1 0x24 DUP3 ADD MSTORE PUSH32 0x5361666545524332303A204552433230206F7065726174696F6E20646964206E PUSH1 0x44 DUP3 ADD MSTORE PUSH32 0x6F74207375636365656400000000000000000000000000000000000000000000 PUSH1 0x64 DUP3 ADD MSTORE PUSH1 0x84 ADD PUSH2 0x25A JUMP JUMPDEST PUSH1 0x60 PUSH2 0xC87 DUP5 DUP5 PUSH1 0x0 DUP6 PUSH2 0xC8F JUMP JUMPDEST SWAP5 SWAP4 POP POP POP POP JUMP JUMPDEST PUSH1 0x60 DUP3 SELFBALANCE LT ISZERO PUSH2 0xD07 JUMPI PUSH1 0x40 MLOAD PUSH3 0x461BCD PUSH1 0xE5 SHL DUP2 MSTORE PUSH1 0x20 PUSH1 0x4 DUP3 ADD MSTORE PUSH1 0x26 PUSH1 0x24 DUP3 ADD MSTORE PUSH32 0x416464726573733A20696E73756666696369656E742062616C616E636520666F PUSH1 0x44 DUP3 ADD MSTORE PUSH32 0x722063616C6C0000000000000000000000000000000000000000000000000000 PUSH1 0x64 DUP3 ADD MSTORE PUSH1 0x84 ADD PUSH2 0x25A JUMP JUMPDEST PUSH1 0x0 DUP1 DUP7 PUSH1 0x1 PUSH1 0x1 PUSH1 0xA0 SHL SUB AND DUP6 DUP8 PUSH1 0x40 MLOAD PUSH2 0xD23 SWAP2 SWAP1 PUSH2 0xFF6 JUMP JUMPDEST PUSH1 0x0 PUSH1 0x40 MLOAD DUP1 DUP4 SUB DUP2 DUP6 DUP8 GAS CALL SWAP3 POP POP POP RETURNDATASIZE DUP1 PUSH1 0x0 DUP2 EQ PUSH2 0xD60 JUMPI PUSH1 0x40 MLOAD SWAP2 POP PUSH1 0x1F NOT PUSH1 0x3F RETURNDATASIZE ADD AND DUP3 ADD PUSH1 0x40 MSTORE RETURNDATASIZE DUP3 MSTORE RETURNDATASIZE PUSH1 0x0 PUSH1 0x20 DUP5 ADD RETURNDATACOPY PUSH2 0xD65 JUMP JUMPDEST PUSH1 0x60 SWAP2 POP JUMPDEST POP SWAP2 POP SWAP2 POP PUSH2 0xD76 DUP8 DUP4 DUP4 DUP8 PUSH2 0xD81 JUMP JUMPDEST SWAP8 SWAP7 POP POP POP POP POP POP POP JUMP JUMPDEST PUSH1 0x60 DUP4 ISZERO PUSH2 0xDF0 JUMPI DUP3 MLOAD PUSH1 0x0 SUB PUSH2 0xDE9 JUMPI PUSH1 0x1 PUSH1 0x1 PUSH1 0xA0 SHL SUB DUP6 AND EXTCODESIZE PUSH2 0xDE9 JUMPI PUSH1 0x40 MLOAD PUSH3 0x461BCD PUSH1 0xE5 SHL DUP2 MSTORE PUSH1 0x20 PUSH1 0x4 DUP3 ADD MSTORE PUSH1 0x1D PUSH1 0x24 DUP3 ADD MSTORE PUSH32 0x416464726573733A2063616C6C20746F206E6F6E2D636F6E7472616374000000 PUSH1 0x44 DUP3 ADD MSTORE PUSH1 0x64 ADD PUSH2 0x25A JUMP JUMPDEST POP DUP2 PUSH2 0xC87 JUMP JUMPDEST PUSH2 0xC87 DUP4 DUP4 DUP2 MLOAD ISZERO PUSH2 0xE05 JUMPI DUP2 MLOAD DUP1 DUP4 PUSH1 0x20 ADD REVERT JUMPDEST DUP1 PUSH1 0x40 MLOAD PUSH3 0x461BCD PUSH1 0xE5 SHL DUP2 MSTORE PUSH1 0x4 ADD PUSH2 0x25A SWAP2 SWAP1 PUSH2 0x1012 JUMP JUMPDEST PUSH1 0x0 PUSH1 0x20 DUP3 DUP5 SUB SLT ISZERO PUSH2 0xE31 JUMPI PUSH1 0x0 DUP1 REVERT JUMPDEST POP CALLDATALOAD SWAP2 SWAP1 POP JUMP JUMPDEST PUSH1 0x1 PUSH1 0x1 PUSH1 0xA0 SHL SUB DUP2 AND DUP2 EQ PUSH2 0x4F3 JUMPI PUSH1 0x0 DUP1 REVERT JUMPDEST PUSH1 0x0 PUSH1 0x20 DUP3 DUP5 SUB SLT ISZERO PUSH2 0xE5F JUMPI PUSH1 0x0 DUP1 REVERT JUMPDEST DUP2 CALLDATALOAD PUSH2 0xA64 DUP2 PUSH2 0xE38 JUMP JUMPDEST PUSH1 0x20 DUP1 DUP3 MSTORE DUP3 MLOAD DUP3 DUP3 ADD DUP2 SWAP1 MSTORE PUSH1 0x0 SWAP2 SWAP1 PUSH1 0x40 SWAP1 DUP2 DUP6 ADD SWAP1 DUP7 DUP5 ADD DUP6 JUMPDEST DUP3 DUP2 LT ISZERO PUSH2 0xEB5 JUMPI DUP2 MLOAD DUP1 MLOAD PUSH1 0x1 PUSH1 0x1 PUSH1 0xA0 SHL SUB AND DUP6 MSTORE DUP7 ADD MLOAD DUP7 DUP6 ADD MSTORE SWAP3 DUP5 ADD SWAP3 SWAP1 DUP6 ADD SWAP1 PUSH1 0x1 ADD PUSH2 0xE87 JUMP JUMPDEST POP SWAP2 SWAP8 SWAP7 POP POP POP POP POP POP POP JUMP JUMPDEST PUSH4 0x4E487B71 PUSH1 0xE0 SHL PUSH1 0x0 MSTORE PUSH1 0x11 PUSH1 0x4 MSTORE PUSH1 0x24 PUSH1 0x0 REVERT JUMPDEST DUP1 DUP3 ADD DUP1 DUP3 GT ISZERO PUSH2 0xB1A JUMPI PUSH2 0xB1A PUSH2 0xEC2 JUMP JUMPDEST PUSH4 0x4E487B71 PUSH1 0xE0 SHL PUSH1 0x0 MSTORE PUSH1 0x32 PUSH1 0x4 MSTORE PUSH1 0x24 PUSH1 0x0 REVERT JUMPDEST PUSH1 0x0 PUSH1 0x1 DUP3 ADD PUSH2 0xF13 JUMPI PUSH2 0xF13 PUSH2 0xEC2 JUMP JUMPDEST POP PUSH1 0x1 ADD SWAP1 JUMP JUMPDEST PUSH1 0x0 DUP2 PUSH2 0xF29 JUMPI PUSH2 0xF29 PUSH2 0xEC2 JUMP JUMPDEST POP PUSH1 0x0 NOT ADD SWAP1 JUMP JUMPDEST PUSH4 0x4E487B71 PUSH1 0xE0 SHL PUSH1 0x0 MSTORE PUSH1 0x41 PUSH1 0x4 MSTORE PUSH1 0x24 PUSH1 0x0 REVERT JUMPDEST PUSH1 0x0 PUSH1 0x20 DUP3 DUP5 SUB SLT ISZERO PUSH2 0xF59 JUMPI PUSH1 0x0 DUP1 REVERT JUMPDEST DUP2 MLOAD PUSH2 0xA64 DUP2 PUSH2 0xE38 JUMP JUMPDEST DUP2 DUP2 SUB DUP2 DUP2 GT ISZERO PUSH2 0xB1A JUMPI PUSH2 0xB1A PUSH2 0xEC2 JUMP JUMPDEST DUP1 DUP3 MUL DUP2 ISZERO DUP3 DUP3 DIV DUP5 EQ OR PUSH2 0xB1A JUMPI PUSH2 0xB1A PUSH2 0xEC2 JUMP JUMPDEST PUSH1 0x0 DUP3 PUSH2 0xFAB JUMPI PUSH4 0x4E487B71 PUSH1 0xE0 SHL PUSH1 0x0 MSTORE PUSH1 0x12 PUSH1 0x4 MSTORE PUSH1 0x24 PUSH1 0x0 REVERT JUMPDEST POP DIV SWAP1 JUMP JUMPDEST PUSH1 0x0 PUSH1 0x20 DUP3 DUP5 SUB SLT ISZERO PUSH2 0xFC2 JUMPI PUSH1 0x0 DUP1 REVERT JUMPDEST DUP2 MLOAD DUP1 ISZERO ISZERO DUP2 EQ PUSH2 0xA64 JUMPI PUSH1 0x0 DUP1 REVERT JUMPDEST PUSH1 0x0 JUMPDEST DUP4 DUP2 LT ISZERO PUSH2 0xFED JUMPI DUP2 DUP2 ADD MLOAD DUP4 DUP3 ADD MSTORE PUSH1 0x20 ADD PUSH2 0xFD5 JUMP JUMPDEST POP POP PUSH1 0x0 SWAP2 ADD MSTORE JUMP JUMPDEST PUSH1 0x0 DUP3 MLOAD PUSH2 0x1008 DUP2 DUP5 PUSH1 0x20 DUP8 ADD PUSH2 0xFD2 JUMP JUMPDEST SWAP2 SWAP1 SWAP2 ADD SWAP3 SWAP2 POP POP JUMP JUMPDEST PUSH1 0x20 DUP2 MSTORE PUSH1 0x0 DUP3 MLOAD DUP1 PUSH1 0x20 DUP5 ADD MSTORE PUSH2 0x1031 DUP2 PUSH1 0x40 DUP6 ADD PUSH1 0x20 DUP8 ADD PUSH2 0xFD2 JUMP JUMPDEST PUSH1 0x1F ADD PUSH1 0x1F NOT AND SWAP2 SWAP1 SWAP2 ADD PUSH1 0x40 ADD SWAP3 SWAP2 POP POP JUMP INVALID LOG2 PUSH5 0x6970667358 0x22 SLT KECCAK256 RETURNDATASIZE CALLDATACOPY CALLDATALOAD PUSH22 0xFA6889CB4D518C54E1753BE384D5BE24B750E17CD522 EXTCODECOPY PUSH29 0x6DB24B1164736F6C634300081100330000000000000000000000000000 "
    },
    "gasEstimates": {
      "creation": {
        "codeDepositCost": "843800",
        "executionCost": "infinite",
        "totalCost": "infinite"
      },
      "external": {
        "availableRewards(address)": "infinite",
        "claimRewards()": "infinite",
        "getStakedTokens(address)": "infinite",
        "nftCollection()": "infinite",
        "rewardsToken()": "infinite",
        "stake(uint256)": "infinite",
        "stakerAddress(uint256)": "2522",
        "stakers(address)": "6811",
        "withdraw(uint256)": "infinite"
      },
      "internal": {
        "calculateRewards(address)": "infinite"
      }
    },
    "methodIdentifiers": {
      "availableRewards(address)": "f854a27f",
      "claimRewards()": "372500ab",
      "getStakedTokens(address)": "63c28db1",
      "nftCollection()": "6588103b",
      "rewardsToken()": "d1af0c7d",
      "stake(uint256)": "a694fc3a",
      "stakerAddress(uint256)": "94067045",
      "stakers(address)": "9168ae72",
      "withdraw(uint256)": "2e1a7d4d"
    }
  },
  "storageLayout": {
    "storage": [
      {
        "astId": 510,
        "contract": "StakingContract.sol:nftStaking",
        "label": "_status",
        "offset": 0,
        "slot": "0",
        "type": "t_uint256"
      },
      {
        "astId": 54,
        "contract": "StakingContract.sol:nftStaking",
        "label": "rewardsPerHour",
        "offset": 0,
        "slot": "1",
        "type": "t_uint256"
      },
      {
        "astId": 59,
        "contract": "StakingContract.sol:nftStaking",
        "label": "stakers",
        "offset": 0,
        "slot": "2",
        "type": "t_mapping(t_address,t_struct(Staker)51_storage)"
      },
      {
        "astId": 63,
        "contract": "StakingContract.sol:nftStaking",
        "label": "stakerAddress",
        "offset": 0,
        "slot": "3",
        "type": "t_mapping(t_uint256,t_address)"
      }
    ],
    "types": {
      "t_address": {
        "encoding": "inplace",
        "label": "address",
        "numberOfBytes": "20"
      },
      "t_array(t_struct(StakedToken)40_storage)dyn_storage": {
        "base": "t_struct(StakedToken)40_storage",
        "encoding": "dynamic_array",
        "label": "struct nftStaking.StakedToken[]",
        "numberOfBytes": "32"
      },
      "t_mapping(t_address,t_struct(Staker)51_storage)": {
        "encoding": "mapping",
        "key": "t_address",
        "label": "mapping(address => struct nftStaking.Staker)",
        "numberOfBytes": "32",
        "value": "t_struct(Staker)51_storage"
      },
      "t_mapping(t_uint256,t_address)": {
        "encoding": "mapping",
        "key": "t_uint256",
        "label": "mapping(uint256 => address)",
        "numberOfBytes": "32",
        "value": "t_address"
      },
      "t_struct(StakedToken)40_storage": {
        "encoding": "inplace",
        "label": "struct nftStaking.StakedToken",
        "members": [
          {
            "astId": 37,
            "contract": "StakingContract.sol:nftStaking",
            "label": "staker",
            "offset": 0,
            "slot": "0",
            "type": "t_address"
          },
          {
            "astId": 39,
            "contract": "StakingContract.sol:nftStaking",
            "label": "tokenId",
            "offset": 0,
            "slot": "1",
            "type": "t_uint256"
          }
        ],
        "numberOfBytes": "64"
      },
      "t_struct(Staker)51_storage": {
        "encoding": "inplace",
        "label": "struct nftStaking.Staker",
        "members": [
          {
            "astId": 42,
            "contract": "StakingContract.sol:nftStaking",
            "label": "amountStaked",
            "offset": 0,
            "slot": "0",
            "type": "t_uint256"
          },
          {
            "astId": 46,
            "contract": "StakingContract.sol:nftStaking",
            "label": "stakedTokens",
            "offset": 0,
            "slot": "1",
            "type": "t_array(t_struct(StakedToken)40_storage)dyn_storage"
          },
          {
            "astId": 48,
            "contract": "StakingContract.sol:nftStaking",
            "label": "timeOfLastUpdate",
            "offset": 0,
            "slot": "2",
            "type": "t_uint256"
          },
          {
            "astId": 50,
            "contract": "StakingContract.sol:nftStaking",
            "label": "unclaimedRewards",
            "offset": 0,
            "slot": "3",
            "type": "t_uint256"
          }
        ],
        "numberOfBytes": "128"
      },
      "t_uint256": {
        "encoding": "inplace",
        "label": "uint256",
        "numberOfBytes": "32"
      }
    }
  },
  "userdoc": {
    "kind": "user",
    "methods": {},
    "version": 1
  }
}